:020000040800F2
:1000000000000420D1830008218400082184000816
:10001000218400082184000821840008218400082C
:100020000000000000000000000000002184000823
:1000300021840008000000002184000821840008B9
:1000400021840008218400082184000821840008FC
:1000500021840008218400082184000821840008EC
:1000600021840008218400082184000821840008DC
:1000700021840008218400082184000821840008CC
:1000800021840008218400082184000821840008BC
:1000900021840008218400082184000821840008AC
:1000A000218400082184000821840008218400089C
:1000B0000000000021840008218400082184000839
:1000C0002184000821840008218400081973000895
:1000D0002573000821840008218400082184000879
:1000E000218400082184000821840008218400085C
:1000F000218400089D7400082184000821840008E0
:10010000218400082184000821840008218400083B
:10011000218400082184000821840008218400082B
:10012000218400082184000821840008057A000841
:1001300021840008218400080000000021840008B8
:1001400021840008218400084575000821840008E6
:1001500021840008218400082184000821840008EB
:1001600021840008C58300082184000800000000E5
:100170002184000821840008218400080000000078
:1001800021840008218400082184000821840008BB
:1001900021840008218400082184000821840008AB
:1001A0002184000821840008218400080000000048
:1001B0002184000800000000218400082184000838
:1001C0002184000800000000218400082184000828
:1001D000218400082184000821840008218400086B
:1001E0000000000000000000000000002184000862
:1001F00000000000000000002184000821840008A5
:10020000218400082184000821840008218400083A
:1002100021840008218400080000000021840008D7
:100220000000000000000000000000002184000821
:0802300021840008218400086C
:100238000348044B834202D0034B03B1184770476D
:10024800B8000020B800002000000000064B074955
:10025800C91A891048BF0131491003D0044B0BB1AA
:1002680001481847704700BFB8000020B8000020B8
:100278000000000010B5064C237843B9FFF7D8FFFB
:10028800044B13B10448AFF300800123237010BD61
:10029800B8000020000000002484000808B5044BC2
:1002A8001BB104490448AFF30080BDE80840CDE71E
:1002B80000000000BC000020248400088B891A0775
:1002C8002DE9F0410C4680462DD44A68002A47DDC6
:1002D800E56A002D41D00022D8F80060C8F8002057
:1002E80013F4805240D10123216A4046A847431C99
:1002F8006CD0A389E56A5F0705D56368C01A636B8C
:100308000BB1236CC01A02460023216A4046A84755
:10031800451C33D1D8F800201D2A48D9A38943F0B9
:100328004003A3811AE00E69BEB10D680E609907FB
:10033800A5EB06050CBF63690023A3600BE02B4601
:100348003246216A4046A76AB847B0F1000CA5EBCF
:100358000C0566440ADD002DF1DC0020BDE8F081C3
:100368000A6C002AB4DCF8E7606DC4E7A3894FF093
:10037800FF3043F04003A381BDE8F08100236360B0
:1003880023692360A389DA0400D56065616BC8F826
:1003980000600029E1D004F14403994202D04046AC
:1003A80000F0E0FA002318466363BDE8F0810D4BC6
:1003B800D340DB4313F00103B0D1636023692360AA
:1003C800A389DB04E2D5002AE0D1DEE7D8F80030C3
:1003D800002B8ED01D2B01D0162B9FD10020C8F8E2
:1003E8000060BBE70100402038B50B69BBB10D4682
:1003F800044608B18369B3B10D4B9D4211D00D4B32
:100408009D4213D00C4B9D4208BFE568B5F90C30EE
:100418002BB129462046BDE83840FFF74FBF0020E2
:1004280038BD6568F2E700F049F9E5E7A568EDE74A
:100438007C8400085C8400083C84000838B540B31C
:1004480003690446E3B1174B1D680DB1AB69CBB125
:10045800154B9C420FD0154B9C4221D0144B9C420B
:1004680008BFEC68B4F90C3053B121462846BDE802
:100478003840FFF723BF6C68B4F90C30002BF4D177
:10048800002038BD284600F019F9074B9C42E2D1FC
:10049800F1E7084B08491868BDE8384000F04EB944
:1004A800AC68DFE7000000207C8400085C8400085A
:1004B8003C8400089C840008F10300080020704771
:1004C800014900F03BB900BFF10300080020704764
:1004D80070B568224E1E0D4602FB06F606F1740141
:1004E80000F096FA044640B100210C3006F168028B
:1004F800A060C4E9001500F0E3F9204670BD00BF14
:10050800274B2DE9F0411E680746B36953B34836B7
:100518004FF00408D6E90134013B04D51EE05A1C0B
:1005280004F168041AD0B4F90C50013B002DF6D13F
:100538001C4B0822294604F15C006566A561C4E9E4
:100548000055C4E90253C4E9045500F0B9F9C4E9F7
:100558000D55C4E912552046BDE8F08135682DB126
:100568002E46D7E7304600F01FF8D0E74FF4D67193
:10057800384600F04DFA044668B105600C3029464B
:10058800254640F8088C4FF4D072A06000F098F926
:1005980034602E46BEE70C2330603B60DBE700BFCB
:1005A8009C8400080100FFFF374A384912682DE98A
:1005B800F84F90424FF00003054681620365C0E999
:1005C80012335ED028460024FFF79AFF03462846D8
:1005D800DFF8C4B06B60FFF793FF03462846DFF8E7
:1005E800BCA0AB60FFF78CFF6F680423E8600822AB
:1005F800214607F15C007C66BC61DFF8A490DFF857
:10060800A480C7E90243C7E90044C7E9044400F0ED
:1006180057F9AE681E4B0822C7F828A02146C7F82C
:100628002C9006F15C00C7F83080C7E9087BF360BE
:100638007466B460B461C6E90044C6E9044400F0D5
:100648003FF9144BC6F8308021460822C6E9086BEA
:10065800C6E90AA9EE68F36006F15C007466B46046
:10066800B461C6E90044C6E9044400F029F901234D
:10067800C6F828A0C6E9086BC6E90B98AB61BDE8C7
:10068800F88F012383619DE79C840008C904000852
:1006980009000100120002004D0D0008750D000848
:1006A800B50D0008D90D0008024B0349186800F081
:1006B80045B800BF9C840008F1030008836903B9AA
:1006C80072E77047704700BF704700BF704700BFB0
:1006D800704700BF024B0349186800F00FB800BF0D
:1006E80000000020C5040008024B0349186800F008
:1006F80005B800BF00000020D50400082DE9F0412E
:100708000026884600F14807D7E90154013D0ED478
:10071800A389013D012B06D9B4F90E3020460133D7
:1007280001D0C04706436B1C04F16804F0D13F6850
:10073800002FE9D13046BDE8F08100BF2DE9F8432C
:1007480000268146884600F14807D7E90154013D53
:100758000FD4A389013D012B07D9B4F90E302146E6
:100768004846013301D0C04706436B1C04F16804B6
:10077800EFD13F68002FE8D13046BDE8F88300BFCD
:1007880070B50D4E0D4D761BB61006D00024013401
:1007980055F8043B9847A642F9D1094E07F03EFEAA
:1007A800084D761BB61006D00024013455F8043BDA
:1007B8009847A642F9D170BD4589000845890008C7
:1007C8004C8900084889000888420DD98B18834253
:1007D8000AD900EB020CBAB1624613F801CD99426E
:1007E80002F801CDF9D170470F2A0ED8034602F15D
:1007F800FF3C4AB10CF1010C013B8C4411F8012B70
:10080800614503F8012FF9D1704740EA01039B07BE
:1008180050D1A2F1100301F1200C70B523F00F059F
:1008280001F1100E00F110041B09AC445EF8105CD5
:100838000EF1100E103444F8205C5EF81C5C44F88D
:100848001C5C5EF8185C44F8185C5EF8145CE645BD
:1008580044F8145CEAD1013312F00C0F02F00F0CCB
:1008680001EB031100EB031328D0ACF1040C1C1F9F
:100878008E462CF003064FEA9C0C1E445EF8045B7F
:1008880044F8045FB442F9D10CF1010C02F0030200
:1008980003EB8C0301EB8C0102F1FF3C4AB10CF134
:1008A800010C013B8C4411F8012B614503F8012F21
:1008B800F9D170BD02F1FF3C03469BE76246EBE7C6
:1008C80070B5860748D0541E002A3FD0CAB20346E6
:1008D80001E0013C3AD303F8012B9D07F9D1032C21
:1008E8002DD9CDB20F2C45EA052545EA054536D95F
:1008F800A4F1100C03F1200E03F110022CF00F06E6
:100908004FEA1C1CB64442E9045542E9025510322C
:100918007245F8D10CF1010214F00C0F04F00F0C21
:1009280003EB021213D0ACF1040323F003030433E6
:10093800134442F8045B9342FBD10CF003042CB13E
:10094800CAB21C4403F8012B9C42FBD170BD64461B
:100958001346002CF4D1F9E703461446BFE71A46BC
:10096800A446E0E7002941D051F8043C30B5002BFB
:1009780083B0A1F104040190B8BFE41800F00AFCA8
:10098800224A01981368EBB1A34216D81A465B684D
:100998000BB1A342FAD9116802EB010CA44526D089
:1009A80031D8216804EB010C634512D063605460B0
:1009B80003B0BDE8304000F0EFBB216804EB010C48
:1009C80063450DD06360146003B0BDE8304000F0AB
:1009D800E3BB1D685B682944C4E900135460F3E76E
:1009E8001D685B682944C4E90013ECE77047246874
:1009F800214454181160A342E6D1D3E900432144AD
:100A0800C2E90013E0E70C230360DDE7D40000200F
:100A1800F8B5CD1C064625F0030508350C2D38BF62
:100A28000C25002D15DBA94213D8254F00F0B2FB89
:100A38003A6892B1144603E0636822461C4663B1E3
:100A480023685B1BF8D40B2B28D923601C44256032
:100A580017E00C2300203360F8BD796859B32946A4
:100A6800304600F0D9F8431C1ED0C41C24F00304FF
:100A7800A04205D0211A304600F0CEF8013013D03C
:100A88002560304600F088FB04F10B00231D20F0A0
:100A98000700C21AE0D01B1AA350F8BD636894423D
:100AA8000CBF3B605360ECE70C233046336000F02A
:100AB80073FB0020F8BD304600F0AEF87860CEE752
:100AC800D40000200EB410B5044683B008B1836981
:100AD8005BB106AB059AA1682046019300F09EFD24
:100AE80003B0BDE8104003B07047FFF7E7FDF0E73B
:100AF8000FB40B4B10B51C6882B00CB1A3695BB185
:100B080005AB049AA1682046019300F087FD02B066
:100B1800BDE8104004B070472046FFF7CFFDEFE76F
:100B2800000000202DE9F04107460E46002836D087
:100B38008369002B31D08468304B9C4239D0304BCC
:100B48009C4241D02F4B9C4208BFFC68A3891B07DD
:100B580033D52369002B30D03578002D36D0B046F8
:100B680008E00A2D11D023685A1C22601D7018F85D
:100B7800015F5DB3A368013B002BA360F3DAA669AC
:100B8800294622463846B342EBDA00F053F90130E1
:100B9800EDD14FF0FF30BDE8F081FFF78FFDBB6965
:100BA800BC68002BC8D13846FFF788FD134B9C4220
:100BB800C5D17C68A3891B07CBD42146384600F0F1
:100BC800AFF90028C8D0E4E7BC68BFE7A368013BD9
:100BD800002BA36009DA22460A21384600F02AF9D8
:100BE8000130D6D00A20BDE8F08123680A22591CBA
:100BF800104621601A70BDE8F08100BF7C840008AF
:100C08005C8400083C840008024B01461868FFF722
:100C180089BF00BF0000002038B50022064D0446F9
:100C280008462A6001F0FEFA431C00D038BD2B6844
:100C3800002BFBD0236038BDDC000020002A08B45C
:100C480010B504469DB033DB4FF402730291069150
:100C5800ADF8143020AB17D0013A4FF6FF7101936D
:100C680004920792ADF8161002A91F9A00F076FBBD
:100C7800421C01DA8B232360029B00221A701DB0EC
:100C8800BDE8104001B070474FF6FF71049207921B
:100C9800ADF8161002A91F9A019300F05FFB431CE0
:100CA80001DA8B2323601DB0BDE8104001B0704706
:100CB8008B234FF0FF302360F5E700BF0CB4002909
:100CC8001F4B10B51C689CB035DB4FF402730290C3
:100CD8000690ADF814301FAB18D001394FF6FF70ED
:100CE8001E9A0491079102A9ADF8160020460193B7
:100CF80000F034FB421C01DA8B232360029B0022A4
:100D08001A701CB0BDE8104002B070474FF6FF7073
:100D18000491079102A9ADF8160020461E9A019386
:100D280000F01CFB431C01DA8B2323601CB0BDE8D8
:100D3800104002B070478B234FF0FF302360F5E777
:100D48000000002010B50C46B1F90E1000F0AAFF03
:100D5800002803DB636D0344636510BDA38923F496
:100D68008053A38110BD00BF002070472DE9F041DA
:100D78000C46B1F90C101F460546CB0516460BD498
:100D880021F480513B4632462846A181B4F90E1021
:100D9800BDE8F04100F0AEB8B4F90E10022300220D
:100DA80000F052F9B4F90C10EAE700BF10B50C4690
:100DB800B1F90E1000F048F9421CA38904D043F49D
:100DC80080536065A38110BD23F48053A38110BDB7
:100DD800B1F90E1000F026B920F0030110F003005D
:100DE800C0F1000051F8043B00F1040C4FEACC0CB0
:100DF8006FF000021CBF22FA0CF213434FF0010CF3
:100E08004CEA0C2C4CEA0C4CA3EB0C0222EA030231
:100E180012EACC1204BF51F8043B0430F4D0C2F1FA
:100E2800000102EA0102B2FA82F2C2F11F0200EBEB
:100E3800D2007047F8B50D460646144608B18369D6
:100E480043B3254B9C422AD0244B9C4229D0244BA7
:100E58009C4208BFF468A269A389A2601A0722D538
:100E6800236903B32268EDB26169D31A2F46994208
:100E780029DD0133A1680139A160511C2160157079
:100E880062699A4216D00A2D02D1A389DB0711D4D0
:100E98003846F8BDFFF712FC0F4B9C42D4D174685A
:100EA800D9E7B468D7E72146304600F039F838B9B1
:100EB8002369D7E721463046FFF796FA0028E7D09E
:100EC8004FF0FF37E4E721463046FFF78DFA002858
:100ED800F6D122680123CDE77C8400085C840008F1
:100EE8003C840008024B0A4601461868FFF7A2BF77
:100EF8000000002038B50C4684461146074D1A46B6
:100F08000023204664462B6006F077F8431C00D087
:100F180038BD2B68002BFBD0236038BDDC000020D7
:100F28003C4B70B51D6806460C460DB1AB69E3B184
:100F3800394B9C421FD0394B9C4247D0384B9C427E
:100F480008BFEC68B4F90C3018079AB219D52169B2
:100F580011B312F001002FD00020A0606069404258
:100F6800A06100292ED0002070BD2846FFF7A6FBFF
:100F7800294B9C42DFD16C68B4F90C3018079AB23F
:100F8800E5D4D10638D5520722D4216943F00803A5
:100F98009AB2A3810029DCD102F42070B0F5007F59
:100FA800D7D02146304600F065F8B4F90C302169F5
:100FB8009AB212F00100CFD1950758BF6069A060BE
:100FC8000029D0D112061FD4084670BDAC68B9E715
:100FD800616B51B104F14402914204D03046FFF7ED
:100FE800C1FCB4F90C30002262630022216923F0AD
:100FF8002403C4E90012C9E7092243F040034FF073
:10100800FF303260A38170BD43F040034FF0FF30E2
:10101800A38170BD000000207C8400085C84000867
:101028003C84000838B50022064D044608462A606C
:1010380001F0D8F8431C00D038BD2B68002BFBD03A
:10104800236038BDDC00002038B50C4684461146C4
:10105800074D1A460023204664462B6001F0DAF853
:10106800431C00D038BD2B68002BFBD0236038BD53
:10107800DC0000208B89F0B50C46990797B007D59E
:1010880004F1470301222360C4E9043217B0F0BD1C
:10109800B4F90E10054600292DDB6A4600F018FE4B
:1010A800002827DB019E4FF48067284606F4704627
:1010B8003946A6F50056B6FA86F67609FFF7A8FC73
:1010C80038B3A3891B4A43F08003AA62A381206036
:1010D800C4E90407002ED9D0B4F90E10284600F050
:1010E80087FF0028D2D0A38923F0030343F001032C
:1010F800A381CBE7A38913F0800F28464FF00006A1
:1011080014BF40274FF480673946FFF781FC002859
:10111800D7D1B4F90C309A05B8D423F0030304F1FD
:101128004702012143F002032260C4E90421A3819C
:10113800ACE700BFC904000870B50C46B1F90E1041
:1011480096B0164600291D4613DB6A4600F0C0FD1E
:1011580000280EDB01994FF48063002001F47041F0
:10116800A1F50051B1FA81F149092960336016B03F
:1011780070BDB4F90C3000221B062A6004D5402348
:101188000020336016B070BD4FF4806300203360D8
:1011980016B070BD704700BF704700BF2DE9F0471B
:1011A8008E680C461D4690469E4237D88B8913F4AC
:1011B800906F0ED1086835462A464146FFF704FB72
:1011C800A26823680020921B2B44A2602360BDE81C
:1011D800F087676981462268681C17EB4707096929
:1011E80048BF0137A2EB010A7F105044B8423A4683
:1011F80001D9074602465B0513D511464846FFF755
:1012080007FC064600B35246216900F043FFA38954
:1012180023F4906343F08003A38107E01E46086827
:10122800CAE7484600F0ACFF064648B106EB0A009C
:10123800A7EB0A0326612E466761A3602060BBE71F
:1012480021694846FFF78EFB0C234FF0FF30C9F8A1
:101258000030A38943F04003A381B8E793682DE9E0
:10126800F04F914683B0002B71D0176880460C462A
:1012780008688D68083747E0B4F80CC01CF4906F14
:1012880030D0D4E9041313EB4303A0EB010548BFA6
:101298000133AA194FEA630A1346013352465345EC
:1012A80001D99A461A461CF4806F37D01146404639
:1012B800FFF7AEFB00283BD02A462169019000F0D9
:1012C800E9FEA289019B22F4906242F08002A28189
:1012D8005819AAEB0505C4F814A0B246A56035460E
:1012E8002361206059465246FFF76EFAA068D9F884
:1012F80008102368451B8E1B03EB0A00A5602060BD
:10130800C9F808601EB3083757E902B6002EFAD0AC
:10131800B542AA46B0D93546B246E3E7404600F0A2
:101328002FFF03460028D3D121694046FFF71AFB57
:101338000C2300224FF0FF30C8F80030A38943F097
:101348004003A381C9E9012203B0BDE8F08F00235F
:101358001846C9F8043003B0BDE8F08F2DE9F04F06
:1013680092468A899FB00F46150680461C4603D5CB
:101378000A69002A00F0F380202300220594012541
:101388008DF8313030237E4C0B928DF832309AF83C
:101398000020D14652B1252A08D0CB4619F8012F92
:1013A8000AB1252AF9D1B9EB0A0367D1002A75D009
:1013B80000234FF0FF3209F10109069309938DF8D4
:1013C8005B301C93CDE9072305E0001B069A05FA5C
:1013D80000F313430693CB460522204619F8011B58
:1013E80000F018FE0028F0D1069BD80602D520226E
:1013F8008DF85B20190702D52B228DF85B209BF80E
:1014080000102A2955D1059A111D1268002A059144
:101418007EDB09920BF1010A9BF801102E295BD0A3
:10142800DFF86C910322484600F0F4FD50B1A0EBC0
:1014380009004FF04009069B0AF1010A09FA00F079
:10144800034306931AF8011B06224E488DF8301004
:1014580000F0E0FD002861D04B4B002B51D005AEC9
:101468004A4B3A4606A900964046AFF30080064626
:10147800721C13D00B9B33440B9388E752463946B2
:1014880040460393FFF78AFE013007D00B9A039B6F
:1014980013440B939BF80120002A89D1BB895B0672
:1014A80054BF0B9B4FF0FF33039303981FB0BDE865
:1014B800F08FA1F13002092A4FD8099B03EB83036F
:1014C8001BF8011F02EB4303A1F13002092AF5D9E9
:1014D8002E29DA460993A3D19AF801102A2927D18F
:1014E800059B0AF10202191D1B68002B0793059141
:1014F800B8BF4FF0FF339AF802109246B8BF07936F
:101508008EE7059B073323F0070308330593B1E7FC
:10151800524243F00203099206937BE705A81B4B4E
:101528003A4606A90090404600F05CFA06469FE756
:10153800A1F1300200230AF1010A092A07933FF6B4
:101548006FAF03EB83031AF8011F02EB4303A1F10A
:101558003002092AF5D9079362E7DA465EE74021A7
:10156800FFF756FA3860386110B140227A6103E714
:101578000C234FF0FF32C8F80030039295E700BF04
:101588000C8900081889000800000000A51100084F
:10159800148900089368013B002B936011DA10B49A
:1015A8009469A34209DB0A2907D01368581C106004
:1015B800084619705DF8044B70475DF8044BFFF757
:1015C80039BC1368581C106008461970704700BF72
:1015D8009BB1F8B5134406460F46541E5D1E01E044
:1015E800AC4208D014F8011F3A463046FFF7D2FF44
:1015F800431CF5D1F8BD0020F8BD0020704700BF9E
:10160800936810B5144613B91846536010BD00F01E
:1016180075FB0023C4E9013310BD00BF2DE9F04F6D
:1016280088469FB015461C46814618B18369002B31
:1016380000F0B480934B984500F0B680924B9845E3
:1016480000F0C380914B984508BFD9F80C80B8F8D2
:101658000C30180740F1AF80D8F81030002B00F09C
:10166800AA80002329788A4E01270B93202305940A
:101678008DF8313030238DF83230002973D0252988
:1016880071D02C46A34614F8012F0AB1252AF9D1A6
:10169800631B039373D1002A69D000234FF0FF32F4
:1016A8000134069309938DF85B301C93CDE9072329
:1016B80004E0801B07FA00F018430690A2460522B2
:1016C800304614F8011B00F0A5FC069B0028F0D159
:1016D800D90602D520228DF85B201A0702D52B22C5
:1016E8008DF85B209AF800102A2971D1059A111DEE
:1016F8001268002A0591C0F29E8009920AF101053C
:101708009AF801102E2976D0624C0322204600F068
:1017180081FC38B1001B4024069B013504FA00F017
:101728000343069315F8011B06225B488DF8301019
:1017380000F070FC002800F08480584B002B6CD01F
:1017480005AC574B424606A948460094AFF30080C3
:101758000290029B01330AD00B9B029A297813440A
:101768000B9300298BD10A462C46002A95D1B8F84C
:101778000C305B0626D40B981FB0BDE8F08F05F13E
:10178800FF3A9A4403E0AA454ED015F8011F424695
:101798004846FFF7FFFE0130F5D1E8E7FEF78EFF78
:1017A800384B98457FF44AAFD9F80480B8F80C3024
:1017B80018073FF551AF41464846FFF7B1FB0028EF
:1017C8003FF44FAF4FF0FF30D6E7D9F808803EE737
:1017D800A1F13002092A52D8099B03EB83031AF8B6
:1017E800011F02EB4303A1F13002092AF5D92E2982
:1017F8005546099388D169782A292CD1059BAA1CBA
:10180800191D1B68002B07930591B8BF4FF0FF33D4
:10181800A9781546B8BF079376E7059B073323F0E9
:1018280007030833059397E70B9A039B1A440B9217
:101838009BF801202FE7524243F0020309920693D6
:101848005CE705A8164B424606A90090484600F0FA
:10185800C9F802907DE7A1F1300200230135092A79
:1018680007933FF651AF03EB830315F8011F02EB13
:101878004303A1F13002092AF5D9079344E75546F5
:1018880040E700BF7C8400085C8400083C840008B2
:101898000C89000814890008188900080000000055
:1018A800D915000810B4044C13460A4601462068AE
:1018B8005DF8044BFFF7B2BE000000202DE9F84F99
:1018C80092461F460A690C468B680646DDF8289042
:1018D8009A42B8BF1A46CAF8002091F8433013B1AB
:1018E8000132CAF80020226891066BD5DAF8003078
:1018F8000233CAF80030226812F0060F11461CD1D4
:10190800E168CB1A002B6ADD04F1190B4FF00008CF
:1019180005E0E568DAF80030ED1A45450CDD0123ED
:101928005A4639463046C847013008F10108F0D117
:101938004FF0FF30BDE8F88F216894F84330003B42
:1019480018BF01238A060AD5E1185A1C3020023331
:10195800224481F8430094F8451082F8431004F1BA
:10196800430239463046C8470130E1D02368DAF8E7
:10197800002003F00603E168042BA1EB0208A3682A
:10198800226902D1B8F1000F14DA934217DD4FF043
:1019980000089B1A98441A34002501E045450EDAE0
:1019A8000123224639463046C847013005F1010572
:1019B800F4D1BDE79342ECDCB8F1000FEBD1002085
:1019C800BDE8F88F12F0060F03D0003B18BF0123C3
:1019D800C5E7DAF80030E168CB1A002B94DC114631
:1019E800ABE700BF2DE9F047904684B00A7E074672
:1019F8000C4699460C9D01F14300002A33D0A2F110
:101A08005803D9B2202967D8202B65D8DFE813F00E
:101A1800F70064006400640064006400640064000B
:101A2800640064006400BC006E006400640064002C
:101A380064006E006400640064006400210090008B
:101A4800F20064006400C700640090006400640051
:101A5800D80023681A0640F1F9802B686269191DBD
:101A680029601B681A60002382462361434603AA43
:101A780021463846CDF80090FFF720FF013020D0EE
:101A88005246236941463846C847013019D0236871
:101A9800E0689B07039E19D5831B002B16DD04F114
:101AA800190A002504E0E068039E831BAB420DDDA4
:101AB8000123524641463846C847013005F1010521
:101AC800F1D14FF0FF3004B0BDE8F087B042B8BFA5
:101AD800304604B0BDE8F087012304F1420A84F8D7
:101AE80042202361002384F84330BFE723681A06A5
:101AF80040F1C2802A68111D126829601546002A23
:101B0800C0F2848062680A26DFF890C1002AA260C9
:101B180023DB236823F004032360002D40F0848036
:101B2800EAB98246082E22D0A0EB0A0020619DE780
:101B38002368190640F196802B68191D29601D68D5
:101B48006F2ADFF858C10CBF08260A2662680023EE
:101B5800002A84F84330A260DBDA002D64D19CF8B7
:101B68000030082E04F1420A84F84230DCD12368A0
:101B7800D907D9D5626823699A42D5DC30230AF19E
:101B8800FF3A8AF80030CFE72B68012204F1420AB5
:101B9800196804332B6084F842102261A2E72B688D
:101BA80000216268181D2860D3F800A0504600F094
:101BB80031FA00286FD0A0EB0A006060206191E73D
:101BC80023687822DFF8D8C084F845202A68111DD8
:101BD80029601D0636D4590634D51588DE0702D586
:101BE80043F0200323607DBB2368102623F02003E5
:101BF8002360ABE7236843F020032360E1E7582321
:101C0800DFF898C084F845302368DFE72D226D425D
:101C180084F843206268002AA26002DB23F00403F0
:101C28002360DFF878C00A2682462A46B5FBF6F319
:101C380006FB1351B2421D461CF801300AF8013D5B
:101C4800F3D26FE71568C9E710267FE713F0400F56
:101C58002B68626903F1040129601B6814BF1A80AC
:101C68001A6000E713F0400F2B6803F104012960A4
:101C780014BF1D881D6863E75E0606D52A68111D16
:101C88002960B2F900502A4639E729680A68043100
:101C98002960154633E7606890E700BF208900088F
:101CA8003489000838B50C4684461146074D1A4653
:101CB8000023204664462B6005F0A7F9431C00D09A
:101CC80038BD2B68002BFBD0236038BDDC0000201A
:101CD80070B50C460346084D0026204611461C46A2
:101CE8002E6000F087FA431C00D070BD2B68002BD3
:101CF800FBD0236070BD00BFDC0000209368002B80
:101D080000F08580B1F90C302DE9F04F0C46190729
:101D1800804683B0174698B225D523691BB310F0C7
:101D280002033D682DD04FF0000ADFF8C0B2B94673
:101D380056465E4533465246404628BF5B46002E0F
:101D480052D0216AA76AB847002856DDD9F808306A
:101D58008244361A181AC9F808000028E9D1002068
:101D680003B0BDE8F08F21464046FFF7D9F80028B8
:101D780040F03981B4F90C303D6898B210F0020394
:101D8800D1D110F0010944D14E46009746B38205DF
:101D9800D4F808B040F18680B3455A4600F2B580C1
:101DA80010F4906F40F0C280206849460192FEF717
:101DB8000BFDA368019AB246A3EB0B01236800262A
:101DC8001344A1602360009BD1449868A0EB0A00EB
:101DD80098600028C3D0B4F90C0080B2002ED6D188
:101DE800D5E900960835D1E7D5E900A60835A0E77A
:101DF80021464046FEF7F8FA88B3B4F90C3043F0B0
:101E080040034FF0FF30A38103B0BDE8F08F0020FE
:101E180070471E46AA46994618461D4600975EB367
:101E2800002833D04A46A168B2426369206828BFB7
:101E3800324603EB010B2169884202D95A4500F367
:101E4800A880934265DC2A46216A4046A76AB847BB
:101E5800B0F1000BD1DDB9EB0B09C9D00120009B13
:101E68005D44A6EB0B069A68A2EB0B029A60002A67
:101E78003FF475AF002ED3D10AF1080353F8046C70
:101E88009A4653F8085C0833002EF7D032460A21E8
:101E9800284600F0BFF8002800F09C800130A0EB35
:101EA8000509BFE720682369984216D86369B342D9
:101EB80013D86FF00042216A4046A76AB24228BF91
:101EC800324692FBF3F202FB03F34A46B847B0F1FD
:101ED800000A92DDA6EB0A0675E7B345DA464946DD
:101EE80028BFB2465246FEF76FFCA3682268A3EBF0
:101EF8000A035244A3602260002BEBD121464046DE
:101F0800FEF772FA0028E5D077E7B3462068324634
:101F18004BE729460192FEF757FC019AA3689346BE
:101F28009B1AA36023681344236094E723682169FC
:101F3800A3EB010B636913EB430348BF01334FEA7B
:101F4800630A0BF1010333445246534501D99A46BB
:101F58001A4643052CD511464046FEF759FD002880
:101F68003BD05A462169019000F094F8A289019B60
:101F780022F4906242F08002A28103EB0B002361FD
:101F8800AAEB0B033246B346C4F814A0A360206042
:101F98000BE729465A46FEF717FC236821464046B8
:101FA8005B442360FEF720FA00283FF454AF24E78F
:101FB800404600F0E5F803460028DED12169404696
:101FC800FEF7D0FCB4F90C300C2223F08003C8F8DB
:101FD800002014E7721C914625E70C22B4F90C3056
:101FE800C8F800200BE74FF0FF30B9E600FCFF7F90
:101FF80038B50022064D044608462A6000F002F96A
:10200800431C00D038BD2B68002BFBD0236038BDA3
:10201800DC00002010B55FFA81FE810713D003466B
:10202800511E22B90BE09A070ED0013907D39C46FE
:1020380013F8012B72451846F5D1604610BD4FF0D4
:10204800000C604610BD114603290DD80029F6D0B2
:102058000246431801E09A42F1D0944612F8011B57
:102068007145F8D1604610BD4EEA0E24024644EA96
:1020780004441046043203686340A3F1013C2CEA8F
:10208800030313F0803FE3D1043910460329F0D845
:10209800DCE700BF844641EA000313F0030349D19B
:1020A800403A23D30B6803604B6843608B688360B6
:1020B800CB68C3600B6903614B6943618B698361BA
:1020C800CB69C3610B6A03624B6A43628B6A8362A2
:1020D800CB6AC3620B6B03634B6B43638B6B83638A
:1020E800CB6BC36340304031403ADBD230320BD344
:1020F8000B6803604B6843608B688360CB68C36080
:1021080010301031103AF3D20C3205D351F8043B99
:1021180040F8043B043AF9D2043208D0D2071CBF75
:1021280011F8013B00F8013B01D30B88038060469E
:10213800704700BF082A13D38B07B1D010F00303F0
:10214800AED0C3F10403D21ADB071CBF11F8013B60
:1021580000F8013BA4D331F8023B20F8023B9FE78B
:10216800043AD9D3013A11F8013B00F8013BF9D2FE
:102178000B7803704B7843708B7883706046704798
:10218800F8B51446F9B1CAB106460D4600F020F874
:10219800A04202D32F463846F8BD21463046FEF706
:1021A80037FC07460028F6D022462946FFF772FF7B
:1021B80030462946FEF7D6FB3846F8BD1746FEF7E7
:1021C800D1FB3846F8BD1146BDE8F840FEF720BC03
:1021D80051F8040C0028A0F10400BCBF0B58C0182B
:1021E800704700BF024B58224FF0FF301A6070470B
:1021F800DC000020024B58224FF0FF301A60704775
:10220800DC000020024B582200201A60704700BFF3
:10221800DC000020024B58224FF0FF301A60704754
:10222800DC000020054A0346106810B1034413601F
:102238007047034803441360704700BFE000002064
:102248005041002001220E48D0F8883043F4700332
:10225800C0F888300B4B1A600022DA611A625A62A1
:10226800196821F0A85121F4102119609A6219689F
:1022780021F4802119601A654FF00063836070476C
:1022880000ED00E0000C02462DE9F04F0D68024613
:1022980095FAA5F44FF0010EB4FA84F403274FF031
:1022A8000F0C6FEA050835FA04F001D1BDE8F08F8C
:1022B8000EFA04F32B4069D04868461E012E1ED83A
:1022C80093FAA3F993FAA3FAB9FA89F9BAFA8AFA46
:1022D80096684FEA490907FA09F926EA09098E6852
:1022E8004FEA4A0A06FA0AF646EA09069660566866
:1022F80008EA0609CE686E4349EA0606566093FA6C
:10230800A3F9B9FA89F993FAA3FABAFA8AFAD66854
:102318004FEA490907FA09F926EA09090E694FEA55
:102328004A0A06FA0AF646EA09060228D66019D1C8
:1023380093FAA3F6D1F814A056B3B6FA86FBBBF10C
:10234800070F25DCB6FA86F6D2F820904FEA8B0BF9
:102358000CFA0BFBB60029EA0B090AFA06F646EA5C
:102368000906166293FAA3F6B6FA86F693FAA3F369
:10237800B3FA83F3D2F80090760007FA06F65B000A
:1023880029EA060600FA03F33343136001348AE7A7
:102398004FEA132999FAA9F6B6FA86F6D2F824B0C4
:1023A800B6000CFA06F62BEA060B99FAA9F6B6FA65
:1023B80086F6B6000AFA06F646EA0B065662D1E732
:1023C80084B010B503AC84E80E0070B1036C23F040
:1023D80000430364036C43F0010303640023436474
:1023E8001846BDE8104004B070470120F9E7002303
:1023F8004BF680724364026418467047036C23F4FA
:102408003F4323F0800303640020704729B9036C1D
:1024180023F00043036408467047012903BF036C97
:10242800002143F00043012108BF0364F3E784B0AF
:1024380010B503AC84E80E00BDE810400123036426
:10244800036C04B023F001030364036C23F000431E
:102458000364002343641846704700207047002037
:10246800704700002DE9F0410E78B84A50F8264030
:1024780091F803E033462240BEF1030F53D8DFE85A
:102488000EF0024F4D4B744642F4007248F280073A
:102498003A4340F8232050F82320AD4D2A403243D8
:1024A8003A4340F8232091F80CC0DA0002F1804248
:1024B80002F5B232BCF1000F77D1CF8891F801C094
:1024C800BF08DFF89C82BF00BCF1000F2DD0116857
:1024D80001EA0801116011680F43176050F82320C2
:1024E800560608D550F82320154045F4004545F018
:1024F800C00540F8235050F823209649BEF1010F3B
:1025080002EA010201D082F0200242F4004242F0C5
:10251800800240F82320D4E042F4C0620024B5E7EA
:1025280042F48062FAE70124B0E7D2F804C00969EE
:102538000CEA080CC2F804C0D2F804C04CEA070739
:102548005760576827F07C47576019B9516841F0C0
:10255800004108E03E291CD84F08C907516848BF08
:10256800013741EA8761516050F82320520408D5A9
:1025780050F82320154045F4404545F0800540F8C3
:102588002350754950F823200A405EB982F440521E
:10259800BBE74F09C906516808BF07F1FF3741EA91
:1025A8008761D4E782F40052AFE7BEF1020F0DBF96
:1025B80050F8236050F823C0684E2E4015BF0CEA2F
:1025C800060646F401463E4346F0800640F823607E
:1025D8001768DFF88C81B1F808C007EA08071760A8
:1025E80017684FEA9C0C47EA8C07176056684F89B2
:1025F80006EA080656605668BF0846EA8706566027
:102608004F78DFF850C1544E002F66D150F8237030
:102618007F0408D550F823702F4047F4404747F00F
:10262800800740F8237050F823707F0608D550F8CB
:1026380023703D4045F4004545F0C00540F823505F
:102648001568096925F07C45156019B9156845F0C4
:10265800004508E03E2910D84F08CD07156848BF47
:10266800013745EA87651560556825F07C45556052
:1026780061B9516841F0004111E04F09CD06156874
:1026880008BF07F1FF3745EA8765E0E73E291BD811
:102698004D08C907516848BF013541EA856148F2CC
:1026A8008005516050F82320324082F440522A437A
:1026B80040F8232050F8231001EA0C01294340F880
:1026C80023102046BDE8F0814D09CF06516808BFA8
:1026D80005F1FF3541EA8561CCE750F82320510424
:1026E80008D550F823202A4042F4404242F08002A4
:1026F80040F8232050F82320520608D550F82370BC
:102708003D4045F4004545F0C00540F82350BEF172
:10271800010F0FD050F8232002EA0C0282F02002A9
:1027280042F4004242F0800240F8232050F823206F
:102738003240EAE650F8231001EA0C0141F4004166
:1027480041F0800140F82310F0E700BF8F89FF07B0
:102758008F8FFF07BF8FFF078FBFFF078F8EFF0782
:102768000000FFFF70B54A780B78097B61BBCAB1DE
:1027780050F82320550609D550F82310464A0A4038
:1027880042F4004242F0C00240F8232050F82310DF
:10279800424A0A4042F4004242F0800240F82320B4
:1027A800002070BD50F82320540409D550F8231098
:1027B800394A0A4042F4404242F0800240F823205D
:1027C80050F82310364AE4E7334E344D344C8ABB74
:1027D80050F82320510408D550F82320324042F401
:1027E800404242F0800240F8232050F8232052064D
:1027F80008D550F82310314041F4004141F0C001A0
:1028080040F8231048F2800150F82320324042F467
:10281800004242F0C00240F8232050F82320144020
:102828000C4340F8234050F8232015400D4340F84E
:102838002350B5E750F82320510408D550F8231049
:10284800314041F4404141F0800140F8231050F8F4
:102858002320520608D550F82310314041F4004196
:1028680041F0C00140F8231048F2800150F82320BD
:10287800324042F4404242F0800240F8232050F8AF
:10288800232015400D4340F8235050F823201440CE
:102898000C4340F8234083E78F8FFF07BF8FFF0764
:1028A8008FBFFF070A784B7850F822105BB1084BAE
:1028B8000B4083F0100343F4004343F0800340F8D7
:1028C800223000207047034B0B4083F48053F2E71B
:1028D800BF8FFF078FBFFF0710B54A780B78F2B19B
:1028E80050F82320540609D550F82340164A2240B0
:1028F80042F4004242F0C00240F82320CA78012A7C
:102908000BD050F82310114A0A4082F0200242F4FA
:10291800004242F0800240F82320002010BD50F809
:102928002320520409D550F82310074A0A4042F4DC
:10293800404242F0800240F8232050F82310044A15
:102948000A4082F44052E2E78F8FFF07BF8FFF07EC
:102958008FBFFF074A780B7B012A13D183B9CB7845
:102968000A78012B0E4950F8223003EA010301D0FE
:1029780083F0200343F4004343F0800340F82230FF
:1029880000207047002BFBD1CB780A78012B054932
:1029980050F8223003EA010318BF83F40053E9E733
:1029A800BF8FFF078FBFFF0709B98023C3640020CB
:1029B8007047836D43F40043836500207047836D3F
:1029C80023F40043836500207047406C7047D81C8F
:1029D800F0B5800813F0030402F1804218BF00F13B
:1029E800FF3002F5B2320E461346054675B9860029
:1029F80001EB80004CB12B46C15CDF00B9400133CC
:102A08000D4399B28C42F7D19551F0BD56F8047B2D
:102A1800013D43F8047BE9E72DE9F0414B78054691
:102A2800012B0C460A7B40F02181D1F810C08E6939
:102A38004969664528BF6646FAB9B3B2E288FFF726
:102A4800C6FF2278D20002F1804202F5B232136842
:102A58009BB21360136843EA064616602278A74BB8
:102A680055F822100B4083F0300343F4004343F041
:102A78008003002045F822303EE1E2782778022AD8
:102A8800236A4FEAC70240F0D3809C4550F827C01C
:102A980080F0B7809A4B02F180420CEA030343F4BA
:102AA800014343F0800340F82730236A02F5B2322D
:102AB8009B1B236250F827704FEA064817F040071F
:102AC800B3B24ED05768BFB25760576847EA080795
:102AD80057606289FFF77BFF2269236A6169934225
:102AE80094BF00229A1B22626278314488BF334621
:102AF80061613ABB2278D20002F1804202F5B2321B
:102B0800106820F07C4010601BB9106840F000404D
:102B180008E03E2B0DD85E08D807106848BF01367C
:102B280040EA8660106022899BB22846FFF74FFF73
:102B380094E75E091068DF0608BF06F1FF3640EA31
:102B48008660E3E7012AEED12278D20002F18042C2
:102B580002F5B232106880B21060106840EA034093
:102B6800E0E7D2F800E01FFA8EFEC2F800E0D2F8E3
:102B780000C04CEA080CC2F800C02289FFF727FF02
:102B8800236A226961699342627888BF9F1B314436
:102B980088BF33466161276222BB2278D20002F1E6
:102BA800804202F5B232506820F07C4050601BB978
:102BB800506840F0004008E03E2B0AD85E08D8076D
:102BC800506848BF013640EA8660506062899BB20F
:102BD800ABE75E095068DF0608BF06F1FF3640EA3A
:102BE8008660E6E7012AF1D12278D20002F180421C
:102BF80002F5B232506880B25060506840EA034033
:102C0800E3E7404E02F180420CEA060646F400462D
:102C180046F0800640F8276002F5B2321668B6B270
:102C28001660166846EA034616609BB222897DE75D
:102C38009B1B236250F8277002F180424FEA064C32
:102C4800B3B27E0602F5B23208D55768BFB25760F4
:102C5800576847EA0C075760628967E71768BFB289
:102C68001760176847EA0C071760DFE72ABB8B690C
:102C78000A78CBB9CB78BBB950F82210204B0B405F
:102C880043F4014343F0800345F82230A3692269E5
:102C9800934210D99B1AA36122781B4B55F8221036
:102CA8000B4083F44053E0E655F82210154B0B40D7
:102CB80043F40043E6E70023EDE7CB78022B18D175
:102CC800CB69002BE8D044F240030A7850F8221070
:102CD80001EA03008B4301D00028DDD155F822100A
:102CE800074B0B4043F4004343F0C00345F8223040
:102CF800D2E7012BDFD00120BDE8F081BF8FFF07AD
:102D08008F8FFF078F8EFF078FBFFF07F0B5DC1C83
:102D1800A40802F1804213F0030302F5B23218BF8F
:102D280004F1FF340E461546204668B901EB8401CC
:102D38004BB152F82440C20024FA02F20A5401307E
:102D480082B29342F7D1F0BD55F8047B013846F8BA
:102D5800047BEAE7014B1860704700BF640000205D
:102D680030B5002836D090F84C40012C34D00124DE
:102D780090F8545080F84C40A5424FF0000525D1FA
:102D8800022480F8544004688565A56C9BB22D0C1C
:102D98002D041D434FF4FE43A564E360E1642265FE
:102DA800636943F4BA436361436E1BB1636943F4D7
:102DB80000736361036F1BB1636943F4005363617C
:102DC8000020636943F00103636130BD402380F84C
:102DD8004C5083650120F8E70220F6E738B5044631
:102DE80004F0E0FC054644B194F85430022B06D0B8
:102DF8002023A365002384F84C30012024E02268B6
:102E0800536943F004035361052384F8543023685D
:102E18001A69900419D55A69216D42F002025A6163
:102E2800042284F854204FF4FE42DA600122090695
:102E380048BF616F84F854204FF0000042BF0A7306
:102E480000229A6484F84C0038BD04F0ABFC401BA7
:102E58000528DCD9A36D43F01003A365032384F888
:102E68005430236D1D0642BF0122636F1A73C1E7F8
:102E780028B190F85430022B03D020238365012019
:102E880070470423026880F854305369002043F4E3
:102E9800005343F00403536170470121036810B5E0
:102EA80023F47F6222F00F020446D068C3F30B02BA
:102EB800503AC2F3C41201FA02F2024200F0AB80A7
:102EC8001A69500508D55A69520505D54FF480622C
:102ED800DA60A26D0A43A2651A69100509D55A6914
:102EE800110506D54FF40062DA60A26D42F00202C5
:102EF800A2651A69D20409D55A69D00406D54FF4D7
:102F08008052DA60A26D42F00402A2651A69510487
:102F180009D55A69520406D54FF48042DA60A26D89
:102F280042F00802A2651A69900509D55A69910507
:102F380006D54FF40072DA60636E0BB120469847ED
:102F480023681A6992042ED55A6990042BD54FF438
:102F58000052DA6094F85420042A1DD15A69216D70
:102F680022F400525A615A69090642F002025A6173
:102F78004FF0010248BF616F84F8542042BF0A73C2
:102F880000229A64002384F84C30E36E002B42D070
:102F98002046BDE810401847052384F85430236FB5
:102FA8000BB12046984723681A69D20518D55A6983
:102FB800D00515D5226D110626D5DA6F32B99A6C6F
:102FC80022B90122616F84F854200A734FF44072C9
:102FD800DA60002384F84C30236E0BB12046984702
:102FE800A36DC3B12268536943F0020353610123FF
:102FF800226D84F85430120644BF626F13730023A5
:1030080084F84C30A36EC1E79A6C002ADED1012205
:1030180084F85420DAE710BD806D7047D8B111F0FC
:10302800100313D00368012023F47F62C3F30B035A
:1030380001F01101503B22F00F02C3F3C413112910
:1030480000FA03F3516803D10B4353600020704723
:1030580021EA0303F9E701207047000010B541EAAF
:103068000203084C0343234038B909B93AB1114661
:103078002140C81A18BF012010BD0146F8E71046C4
:10308800FAE700BF0000FFFF50B190F8203059B9AF
:1030980092B192F82000984214BF03200020704794
:1030A80041B191F82030F3E791F820109942EFD020
:1030B8000220704708467047104670472DE9F043D4
:1030C800D2F800C0866800293ED14FF6FC7E0D4636
:1030D8000B4604684FEA8C08270C3F0404EA0E04E8
:1030E800B34213D1036896601B0C1B04194351F8B3
:1030F8002C001D435560D16030B120F0030000045E
:10310800000C184310610020BDE8F08343B108EBC0
:10311800010555F807900D4609EA0E010133DFE76E
:103128002146FBE7076844B907EA0E030134B442B5
:1031380016D08B42F6D12646D4E709EB030507EAF9
:103148000807EF591D46EFE700254FF6FC7E2B4692
:103158002C46DFF8148001EA0E014FEA8C09E6E7F5
:103168008B42BFD00120CFE70000FFFF830706D5C1
:1031780009B1064B0B600AB107231360704709B108
:10318800034B0B60002AF9D00523F6E7000001FE87
:10319800000001F838B5044604F004FB0546002C8D
:1031A80000F0E780002384F84C300223226884F87A
:1031B8005430536943F00603536123685A69D207B0
:1031C80000F1CC80D4E90E1211436B4A6B4893424C
:1031D80000F0888002F18052934200F0838002F16F
:1031E8007042803293427DD002F18052934279D06E
:1031F80002F170428032934274D002F180529342BD
:1032080070D002F17042803293426BD002F180524A
:10321800934267D002F170428032934262D002F149
:10322800805293425ED002F170428032934259D06C
:1032380002F18052934255D002F17042803293429B
:1032480050D002F1805293424CD002F17042803249
:10325800934247D002F18052934243D002F1704228
:10326800803293423ED002F1805293423AD002F12A
:1032780070428032934235D002F18052934231D06D
:1032880002F17042803293422CD002F18052934274
:1032980028D002F170428032934223D002F180524A
:1032A80093421FD083421DD0803293421AD002F13C
:1032B80070428032934215D002F18052934211D06D
:1032C80002F17042803293420CD002F18052934254
:1032D80008D002F170428032934203D002F180524A
:1032E800934201D1226C11435A69834222F443026A
:1032F80042EA01025A614FF00002616C1A64596493
:103308009A64DA641A651DD01D4A93421AD002F1F4
:1033180070428032934215D002F18052934211D00C
:1033280002F17042803293420CD002F180529342F3
:1033380008D002F170428032934203D002F18052E9
:10334800934202D100225A659A650020D867A36C7F
:10335800A0652365012384F8543038BD04F022FAAF
:10336800401B05287FF629AF1023A365032384F8A3
:1033780054300120F1E700BF5000024050060240DF
:103388005006025037B5044600284FD0426F002A35
:103398004CD090F85410036801295869CDB203D075
:1033A800022D3ED1C1033CD594F854100129CDB269
:1033B8002FD194F84C100220012930D0002184F834
:1033C800540084F84C501073A1651161596941F497
:1033D800BA415961616E19B1596941F40071596175
:1033E800216F19B1596941F400515961136801A954
:1033F8000022186AFFF7BAFE636F21681B681A0C6F
:10340800120423F003030A601B04019A1B0C1343E4
:10341800CB6700202268536943F00103536103B06E
:1034280030BD4023A365002384F84C300120F6E723
:10343800F0B5002800F09480002900F09180C5695B
:10344800436902682B43C56B12F0200443EA050365
:10345800056943EA0503856945EA03050D6010D04F
:10346800836AC66A876B013B1B053E4303F07C7386
:103478003343466A013E360106F47C7633432B43D8
:103488000B604368056B23F4C0739B059B0D2B43AE
:10349800C5684B60B5F5806F56D114B143F48063AD
:1034A8004B60436C4BB1046C23434C682343846CDE
:1034B800240404F47C1423434B60B0F8686012F0D1
:1034C80002048E601AD0C36C5D1E264B03EA0543C6
:1034D800056D3343002D456DB8BF43F08053002D73
:1034E800856DB8BF43F00053002DC56DB8BF43F0DC
:1034F8008043002DB8BF43F000438B60036ECB6060
:10350800436E0B6134B3036D456D002BB8BF5B424E
:10351800154C002DB8BF6D42C3F30C0304EA0544F3
:1035280023434B61836DC06D002BB8BF5B420028FD
:10353800B8BF40429BB243EA0043002042F4E06235
:103548008B61C8610A62F0BDB5F5007FA9D143F46B
:103558000073A5E742F4A06220464C610A62F2E7D4
:103568000120F0E70000FF070000FF1FF0B50D463F
:10357800044689B078B171B14069012803D10423A8
:10358800236109B0F0BD276800223846FFF766FDC1
:1035980018B1052323610120F3E729463846FFF7D0
:1035A80073FD064608B10423F4E747B92560A3680C
:1035B80000200133A360012320612373E1E7286A17
:1035C80002AA01A9FFF7D2FD029B314603AA2046B1
:1035D8000393FFF773FDDDE90112636833B123F04C
:1035E80003031B041B0C0B4345F8223025F003058D
:1035F8002D04069B2D0C0D4343F82250D7E70000FD
:1036080070B169B190F8543090F85420DBB2022AB6
:1036180001D0052B06D140238365002380F84C3068
:10362800012070470B7B022B02D1012008617047F3
:1036380003681A4A934225D002F18052934221D05E
:1036480002F17042803293421CD002F180529342C0
:1036580018D002F170428032934213D002F18052A6
:1036680093420FD002F17042803293420AD002F1A5
:103678008052934206D00B681B6A9B0702D503232E
:103688000B61CDE7026D4B68812A02D11BB9042377
:10369800F6E7002BFBD14167002070475006024037
:1036A8000A2382B00193019B4BB9C00000F180400E
:1036B80000F5B2300068C0F3094002B07047019BC2
:1036C800013BEFE70A2382B00193019B4BB9C0008D
:1036D80000F1804000F5B2304068C0F3094002B004
:1036E8007047019B013BEFE7F7B50446E0B190F85E
:1036F800953203F0FF021BB980F8942204F074FDA0
:103708000323206884F89532FEF778FE237C251D74
:103718008DF8003095E80E002068FEF751FE01464E
:1037280020B1022384F8953201254AE02068FEF78B
:103738006DFE0028F5D102460127267904F114030D
:10374800C1B28E4203F1280317D800210A4604F5B6
:10375800AA73C8B2864203F128031AD8237C8DF8CD
:10376800003095E80E002068FEF761FE012305464B
:10377800D8B1022284F89522D6E743E9062203F855
:10378800277C03F8281C03F8252C43F8102C01305B
:10379800D6E743E9062203F8272C03F8280C03F898
:1037A800252C43F8102C0131D3E7607484F8953246
:1037B800237B012B02D1204600F0E7FD2068FFF7AC
:1037C800FEF8284603B0F0BD10B590F894320446D0
:1037D800012B0CD0012380F894320068FEF707FE15
:1037E8002068FFF7E6F8002084F8940210BD022054
:1037F800FCE710B590F894320446012B0CD0012355
:1038080080F894320068FEF7F9FD2068FFF7D7F8D2
:10381800002084F8940210BD0220FCE710B590F84F
:1038280094220446012A0AD00122417480F8942285
:103838000068FFF7B9F8002084F8940210BD022050
:10384800FCE700002DE9F74F04460068FFF7BDF8D4
:1038580010F4004100F0C083DFF888B3DFF888A3D4
:1038680023685A6C120402D403B0BDE8F08F596C77
:1038780011F00F067CD111F010011A6825D122F041
:10388800784222F4E14222F0700242F400421A60C7
:10389800237DA26ADB0003F1804303F5B2331B6882
:1038A8002046C3F3094323631344A36201F0C0F91C
:1038B800637C002BD4D0E26A002AD1D1637C2168D2
:1038C80043F08003CB646274CAE712F4006518D031
:1038D80094F85401FFF7F6FE04F527710346B4F88F
:1038E8005A21C4F870012068FFF710FA2268BB4B10
:1038F800116820460B4043F08003136001F04CF937
:10390800AEE71704ACD51968B44A0A4042F0800201
:103918001A6094F85401FFF7D5FE0346C4F8700105
:1039280090B1D4F8681179B1B4F85A212068FFF73A
:10393800EDF9D4F86831D4F87021294613442046AB
:10394800C4F8683101F0D8F9226813681E0587D4D5
:1039580003F44053B3F5405F82D01168A04B0B408D
:1039680083F4405343F4004343F08003136077E744
:1039780035B253F8259019F4004F1FFA89F800F072
:10398800D78053F82510954A0A40282101FB0641A3
:1039980042F0800243F8252091F8602191F8540103
:1039A80072B9FFF78FFE0746002800F0A58003468E
:1039B800B1F85A21D1F868112068FFF7A7F99BE000
:1039C80091F85721022A7FD118F4804380B208F079
:1039D80040023CD0FFF764FED1F86C3107468342C1
:1039E80016D20023C1F86C31282303FB0643216853
:1039F80093F854017A4B51F820C00CEA030383F47E
:103A0800005343F4004343F0800341F8203004E0BE
:103A18001B1AC1F86C31002BE6D07AB1282303FBBE
:103A28000643226893F8541152F8213003EA0A0336
:103A380043F4004343F0C00342F82130002F5BD029
:103A4800282101FB06413B46B1F85C21B2E701930E
:103A5800FFF738FE0746D1F86C01B84216D2019B31
:103A6800C1F86C31282303FB0643216893F85401FD
:103A78005B4B51F820C00CEA030383F4005343F472
:103A8800004343F0800341F8203004E0C01BC1F834
:103A98006C010028E6D07AB9282303FB0643226884
:103AA80093F8541152F8213003EA0A0343F400430F
:103AB80043F0C00342F82130F7B1282101FB064149
:103AC8003B46B1F85E2175E700B253F8202002EAC0
:103AD8000A0242F4004242F0C00243F8202091F862
:103AE800542153F82230104613F4804F5AD0FFF770
:103AF800D7FD07460028A6D1282101FB0643D3F8A5
:103B080070213A44C3F87021D3F868213A44C3F8C5
:103B18006821D3F86C211AB1D3F864319F4247D297
:103B2800282303FB0643204693F8541101F0E4F8D8
:103B380019F0800F3FF494AE2822206850F8253001
:103B480023F0784323F4E14323F0700343F4004364
:103B580040F8253002FB0643D97D012963D10021B5
:103B680006FB02222244516093F8202092B119F0FA
:103B7800400F5A7D3AD01ABB1B7DDB0003F180430E
:103B880003F5B2331A6822F07C421A601A6842F0D0
:103B980000421A60282303FB0646317D204601F0C7
:103BA80047F85DE6FFF78EFD07460028A4D087E7B3
:103BB80001FB0641206801F5AA71FEF72DFFB7E762
:103BC800012AE7D11B7DDB0003F1804303F5B23303
:103BD8001A6892B21A601A68DBE700BF8F0FFF07F6
:103BE8008FBFFF07BF8FFF078F8FFF0772B91B7D3E
:103BF800DB0003F1804303F5B2335A6822F07C42BC
:103C08005A605A6842F000425A60C3E7012AC1D19B
:103C18001B7DDB0003F1804303F5B2335A6892B28F
:103C28005A605A68F0E719F48072197D23D1CE00E2
:103C380006F1804605EB850506F5B2363668EF00D5
:103C480004EBC505D5F82CC0C6F30946B44501D820
:103C5800EA62A3E7ACEB0602EA62002A9ED09A6AFF
:103C680007F1140132449A622B6B214433442B63CD
:103C7800FEF7D2FEF4E518F0400288B208F4804757
:103C880000F0E280FFF70CFD05EB850504EBC505A8
:103C9800EA6A8446824294BF0022121A2823EA6202
:103CA800BFB2002A57D103FB06435A7D002A40D1F0
:103CB8001B7DDB0003F1804303F5B2331A6822F061
:103CC8007C421A601A6842F000421A605A6822F070
:103CD8007C425A605A6842F000425A60282303FB2B
:103CE8000643DA7D022A0DD1197D226852F8213067
:103CF80003EA0B0383F0200343F4004343F08003FB
:103D080042F82130282303FB06462046317D00F087
:103D18008FFF002F3FF4A4AD317D226852F8213087
:103D280003EA0A0343F4404343F0800342F8213096
:103D380096E5012AD2D11B7DDB0003F1804303F510
:103D4800B2331A6892B21A601A681A605A6892B244
:103D58005A605A68C1E7206867B103FB06431A7DB9
:103D680050F8223003EA0A0343F4404343F0800347
:103D780040F82230282202FB064292F83830012B04
:103D88003CD1916A614491622B6B63442B63556B00
:103D9800536A9D4216D3ED1A5563282202FB064248
:103DA800557D002D41D1127DD20002F1804202F5ED
:103DB800B232156825F07C45156073B9156845F071
:103DC800004513E01DB9634682F83850E5E7002343
:103DD80082F8383053632B46DFE73E2B1CD85F0848
:103DE800DD07156848BF013745EA87651560282251
:103DF80002FB0642928B9BB2FEF7E9FD282303FBE8
:103E080006462268317D52F8213003EA0B0383F01D
:103E1800300343F4004387E75F09DD06156808BFF0
:103E280007F1FF3745EA8765C9E7012DDFD1127D24
:103E3800D20002F1804202F5B2321568ADB21560C7
:103E4800156845EA0345D1E7FFF73CFC05EB850516
:103E580004EBC505EB6ABFB2834228BF1A1AEA62AF
:103E68002823002A4BD103FB06435A7D002A34D16C
:103E78001B7DDB0003F1804303F5B2331A6822F09F
:103E88007C421A601A6842F000421A605A6822F0AE
:103E98007C425A605A6842F000425A60282303FB69
:103EA8000643DA7D022A0DD1197D226852F82130A5
:103EB80003EA0B0383F0200343F4004343F0800339
:103EC80042F82130282303FB06462046317D00F0C6
:103ED800AFFE002F7FF4C4AC1EE7012ADED11B7DA4
:103EE800DB0003F1804303F5B2331A6892B21A601B
:103EF8001A681A605A6892B25A605A68CDE7D4F8BC
:103F080000C067B903FB06431A7D5CF8223003EA58
:103F18000A0343F4404343F080034CF8223028223C
:103F280002FB064292F83830012B7FF467AF916AA2
:103F3800014491622B6B03442B63556B536A9D427A
:103F480016D3ED1A5563282202FB0642507D00283D
:103F580033D1127DD20002F1804202F5B2325068AC
:103F680020F07C40506073B9506840F0004013E086
:103F78001DB9034682F83850E5E70023536382F8F9
:103F880038302B46DFE73E2B0ED85D085068DF0738
:103F980048BF013540EA85605060282202FB06428E
:103FA8006046D28B9BB227E75D09D806506808BFE8
:103FB80005F1FF3540EA8560D7E70128EDD1127D8C
:103FC800D20002F1804202F5B232506880B25060ED
:103FD800506840EA0340DFE7430511D522682046D0
:103FE800536C019123F480631B041B0C536400F091
:103FF800CFFE2046019903B0BDE8F04FFFF70EBC95
:10400800470407D52268536C23F480431B041B0C18
:10401800536429E410F4005104D02268536C23F44B
:104028000053F3E7C60419D523681A6C22F004027A
:104038001A641A6C22F008021A6494F8CC32012B24
:1040480004D1204684F8CC1200F0B0F9204600F0E4
:10405800C1FE2268536C23F48053D7E7050513D5B6
:1040680023681A6C42F008021A645A6C22F400623F
:104078001204120C5A641A6C42F004021A642046A4
:1040880000F09EFEFFF7F0BB010621D523685A6CAD
:1040980022F080021204120C5A6494F8CC22002AEE
:1040A800EDD1012120461A6C42F004021A641A6C00
:1040B80042F008021A6484F8CC125B6D9B0803F086
:1040C8003C03C4F8D03203B0BDE8F04F00F06EB93D
:1040D80082050BD522682046536C23F400731B0419
:1040E8001B0C536400F080FEFFF7BEBBC3057FF5D1
:1040F800BBAB2268536C23F4807387E770B501F07B
:10410800070606EB860411F0800F05464FEAC40443
:104118004FF028001ED004F11401012400FB0650C2
:1041280029444475022BCB7008BF0023C2F30A024E
:1041380008BF0B710E700A6195F89432012B12D0EA
:104148000123286885F89432FEF78CF9002085F859
:10415800940270BD04F5AA71002400FB065029449E
:1041680080F85541DEE70220F3E710B5044601F078
:10417800070000EB800311F0800F4FF028024FEA90
:10418800C30315D003F11401012302FB00422144AB
:104198005375087094F89432012B12D001232068CB
:1041A80084F89432FEF7DEFA002084F8940210BDF9
:1041B80003F5AA71002302FB0042214482F855311D
:1041C800E7E70220F3E770B52826002501F007018C
:1041D80006FB0104006884F85411C4E95A23C4F8A2
:1041E800705184F8555104F5AA71FEF715FC28465C
:1041F80070BD282301F0070103FB0100D0F870010E
:104208007047F8B5282401F0070604FB060406EBFE
:10421800860100EBC107A262002501223946FB6234
:10422800143184F83820636300683D63627526752D
:10423800FEF7F2FB2846F8BD38B5037901F007050B
:10424800AB42044624D311F0800F4FF0280016D05B
:10425800012300FB054100FB05421431537501237E
:104268000D708B7094F894229A4213D0206884F8C9
:104278009432FEF717FB002084F8940238BD00FB47
:1042880001431A4603F5AA71002382F85531E6E77F
:104298000120F3E70220F1E738B5027901F00F03B6
:1042A8009A4204462BD301F0070000EB800311F07B
:1042B800800F4FF028024FEAC30317D003F114010F
:1042C800012302FB004221445375002508708D70BC
:1042D80094F89432012B14D00123206884F8943286
:1042E800FEF7FAFA284684F8945238BD03F5AA7105
:1042F800002302FB0042214482F85531E5E7012002
:10430800F3E70220F1E701F0070303EB83030A0652
:104318004FEAC3034CBF03F1140103F5AA7101442A
:104328000068FEF717BB10B590F894320446012BCD
:1043380010D0012380F894320B06006807D501F0ED
:104348000701FEF78AF8002084F8940210BDFEF7F2
:1043580086F8F8E70220F9E710B5282411F0800F55
:104368001BBF01F0070104FB010004FB010014302E
:1043780008BF00F5AA7099B21AB90273C18000206B
:1043880010BD012283600273F9E70021012203684E
:1043980080F8CC12C0F8D8225A6D084642F00102C3
:1043A8005A655A6D42F002025A65704770470368B1
:1043B80059699A6942F008029A619A6942F01002B2
:1043C8009A611A6822F001021A601A6922F45B7273
:1043D80022F003021A619A6822F440429A6090F827
:1043E8008920042A0BD08A0609D5D0F88C2042F0FF
:1043F8008002C0F88C209A6942F020029A6190F8F5
:104408008920032A0BD04A0609D5D0F88C2042F01F
:104418000402C0F88C209A6942F040029A618A0529
:1044280009D5D0F88C2042F00102C0F88C209A6996
:1044380042F400729A61CA0509D5D0F88C2042F07E
:104448000802C0F88C209A6942F480729A610023AD
:10445800A0F86A30A0F8723070470000F8B504463A
:1044680008B90120F8BD002302688362484B9A42CC
:10447800C36802D047498A4201D10F2BF1D8E16BBA
:1044880008334909DB0801FB033341498A427DD0DF
:1044980001F180518A4279D03F498A420AD001F11C
:1044A80080518A4206D03D498A4203D001F18051A9
:1044B8008A4201D1102BD4D894F8893003F0FF0236
:1044C80023B9204684F8882003F09EFA0223226844
:1044D80084F889301368656823F001031360A369C1
:1044E8009068B3F1806FA66B00F4F81C04D1B5F5A1
:1044F800800F3ED1002E41D015F48001E068176886
:1045080041D006283FD927F4807E276D4EEA070759
:104518001760E7692B433843A76A33433843E76B8F
:10452800384340EA0C009060606B0343606A0343C1
:104538002069034360690343206A0343E06C034333
:10454800A0680343A06C0343A06D0343E06D0343DD
:10455800206E0343D36029B1D368616D23F0004313
:104568000B43D36000200123C4F88C0084F8893001
:1045780078E7002DC0D1B6F1805FBDD1116841F454
:1045880080511160B8E727F48077C1E7082B92E7DC
:10459800002000460020005600300140003800404E
:1045A8002DE9F0411D4690F889300446012BDFB211
:1045B80040F02D81002945D0002A43D0002D41D05C
:1045C80090F88830012B00F02281052380F889308B
:1045D80000230668C0F88C3080F88870A0F86A500C
:1045E800A0F87250C0E91E33F368416623F4C02373
:1045F800A0F86850C266A0F87050F360B368C1684C
:10460800D0F8840023F440430F29D0F81CC0B360CD
:104618001BD9BCF5003F04D1D4F880309B69022B2C
:1046280018D07C4B9E420AD003F180539E4206D09C
:10463800794B9E4203D003F180539E4207D1002359
:1046480084F888303846BDE8F081072934D9BCF1B0
:10465800000FF4D0D4F880309B69002BEFD00F29DD
:104668000BD8022B06D1B4F86A309BB201335B0831
:10467800A4F86A30BCF5003F2DD0684BDFF8A8815C
:104688004366674B072903664FF00003C0F868804C
:10469800C36639D8A4F87250036D1B0662D5436F00
:1046A800002B39D1D4F88C3043F01003C4F88C3087
:1046B800012384F88930C2E7D4F880309B69012B44
:1046C8000FD1B4F86A309BB201335B08A4F86A30A2
:1046D800BCF5803F0DD1B4F872309BB201335B0852
:1046E8000FE0022BF4D1B4F86A309BB203339B0875
:1046F800ECE7BCF5003FC0D1B4F872309BB203338D
:104708009B08A4F87230B8E70F2994BF6B00AB0080
:104718009BB2A4F87230BFE7B4F872101B6889B274
:104728003036C3E903629960FEF72CFE0028B9D140
:104738002268D4F88060936843F480439360E36808
:10474800C6E91800072BC6E91A8013D8A4F86A50DE
:10475800336D19064ED5736FA3B9D4F88400FEF7EC
:104768003DFB9FE7B4F8723006F130019BB2FEF7CB
:10477800F7FADBE70F2B94BF6B00AB009BB2A4F8F2
:104788006A30E5E7B4F86A101B6889B29960616E0F
:1047980020323046D9601A61FEF7F4FD0028DCD1DA
:1047A800D4F8843022681B6D1E49812B2BD1D4F894
:1047B80080301B6D812B26D155680D40556093685C
:1047C80043F400439360136943F458731361136807
:1047D80043F001031360D3699B0207D46368B3F500
:1047E800800F02BF136843F400731360002784F836
:1047F800887027E7B4F86A303046616E9BB2203281
:10480800FEF7AEFACAE753680B401D43D6E7022706
:1048180018E700BF00300140003800406D4800082C
:10482800394800080000FFFF7948000870477047C2
:1048380008B5C06D90F88930072B0BD0D0F88430BC
:104848001B6D812B07D1D0F880301B6D812B02D1D5
:1048580003F042F908BD0268136943F008031361C5
:10486800F8E7704708B5C06DFFF7FBFF08BD704754
:1048780010B5C46DFEF7D0FB68B12046FFF797FD71
:10488800D4F88C3043F01003C4F88C30012384F83A
:104898008930FFF7ECFF10BD08B50023C06DA0F804
:1048A8007230A0F86A30012380F88930FFF7DFFF03
:1048B80008BD70472DE9F0470668044633697269F8
:1048C800D6F8088090F88970110503EA0205FFB24E
:1048D80009D51A0707D5B36943F40063B361FFF735
:1048E800E8FFBDE8F08705F06403042B18D12046E3
:1048F800E36F9847A36F20469847012305F04509C1
:10490800B9F1010F03D1A36F204698474B4605F034
:104918002602022A06D12046E36FBDE8F047184771
:104928000023EBE7002BDCD12B0751D523689A69CC
:1049380042F008029A619A6942F010029A619A69F3
:1049480042F400629A611A6922F008021A619B68AF
:1049580013F4404F1AD02046FFF729FD012384F8AD
:104968008930D4F88C3023B3FFF781FFB9E7E268C8
:10497800E36E0F2A10D92268126B43F8042BE36602
:10498800B4F87230013B9BB2A4F87230B4F87230BC
:104998009BB2002BEBD1DEE7072A95BF2268328E47
:1049A80092F8302023F8022B9EBF1A70E36E013371
:1049B800E5E7052F02D103F08FF892E7042F02D123
:1049C800FFF735FF8DE7032F8BD1FFF72FFF88E720
:1049D80015F4587F85D068060AD5D4F88C3022683B
:1049E80043F00403C4F88C30936943F040039361A7
:1049F800A9050AD5D4F88C30226843F00103C4F81D
:104A08008C30936943F400739361EA050AD5D4F8AE
:104A18008C30226843F00803C4F88C30936943F45F
:104A280080739361AB060AD5D4F88C30226843F0C2
:104A38008003C4F88C30936943F020039361D4F861
:104A48008C30002B3FF44DAF236808F440481A68B7
:104A5800B8F5404F22F001021A601A6922F45A721E
:104A680022F003021A6124D19A68D4F8840022F44F
:104A780040429A6050B1114BC366FEF7F9F928B16C
:104A8800D4F88C3043F04003C4F88C30D4F880005C
:104A980000283FF426AF094BC366FEF7E9F9002862
:104AA8003FF41FAFD4F88C3043F04003C4F88C3087
:104AB80017E70123204684F8893055E7A148000804
:104AC80030B590F88930012BDCB21BD190F88830D2
:104AD800012B4FF0020313D0026880F88930136865
:104AE8008D6823F0010313600B6849682B4301F4B8
:104AF80070210B43D361002380F8894080F8883007
:104B0800184600E0012030BD2DE9F0410446476811
:104B180003F04CFCA36813F4806803D0BDE8F041AF
:104B280003F048BC13F44076F8D023F4407343F400
:104B38008063A36003F03EFCB6F5807F4FF08003EE
:104B480007F120050BD0B6F5407FD4F8C46012D029
:104B58002846A37300F038FF38B9042314E0A37380
:104B680001232846237300F02FFFA36823F48063F2
:104B7800A360BDE8F081C7F844802846A37300F01D
:104B880023FF0028F1D1032302460146237303467D
:104B98003046FFF736FBE8E7244B2DE9F0411B6868
:104BA80000F52771DD6908226C68064604F15C008F
:104BB80000F08EFB012300226362AB68A26323F03E
:104BC8000E036264AB6094F95C10914204DA43F41A
:104BD8008073AB60BDE8F081AA7394F862202AB9AB
:104BE80094F8632012B943F40073F2E704F1620009
:104BF800A76A00F0FDFBB0F5807F03464FF0000880
:104C0800606307D93946284600F055F9AB6885F83E
:104C18000C80E8E7E26AC4F8388022633046B97B42
:104C2800FFF7D1FA02232B73D4E700BFE800002076
:104C3800304B2DE9F0411B680746DD6911F00F0381
:104C48001BBF0C2202FB0355043564350E462C6845
:104C580000293BD12B7A012B15D1D4F828800B469B
:104C68000A46FFF7B0FAE16BB8F8100081421DD888
:104C7800A36D012B09D133463246384698F80E10F9
:104C8800FFF7BFFAA665BDE8F08102232362636BD4
:104C98006664A3636B6843F008036B60E36C13B14D
:104CA80004F12000984704232B72ECE70B1A834287
:104CB80028BF0346226BC91A02442263E16398F8AD
:104CC8000E103846BDE8F041FFF79BBAA16D0023EE
:104CD800626B29B122B11A463146A365E363F0E756
:104CE8006364022323626B68A26343F008036B606A
:104CF800C9E700BFE8000020244A2DE9F041126806
:104D080001F00F07D26907EB470402EB840406465B
:104D1800656800292FD10C2303FB0722137B022B84
:104D280010D1AF6AFFF765FAAB6B6A6B0344934225
:104D3800AB6312D802D03B8A834205D0A36843F400
:104D48004073A360BDE8F0812A6B30461A442A6399
:104D5800B97BBDE8F041FFF736BA27236B64A36837
:104D680043F00803A360EB6C002BEBD005F12000A7
:104D7800BDE8F0411847FFF73CFA00236B640223B3
:104D88002B62A368A86343F00803DAE7E800002071
:104D980038B50A4C054623685B6A0BB101F006F882
:104DA800EA79236842B90222C3F8402100F01CF9CD
:104DB800012223685A6238BD0122F5E7E800002085
:104DC800034B1B68D3F864310BB1F42018477047C4
:104DD800E8000020034B1B68D3F864310BB1F320C3
:104DE80018477047E8000020034B1B68D3F864316C
:104DF8000BB1F02018477047E800002070B58C7B95
:104E0800034614F0780F04F07F0211D1D0F8C400E3
:104E18000579AA420CD202EB420225064FEA820229
:104E28004CBF6432043213445D6815F0010601D0AA
:104E3800142213E045F001055D6024F0800224F09F
:104E48007F058B6019605A729D723AB1CB7B0A8AD2
:104E580003F003032146FFF751F93246104670BDAF
:104E680010B500248B68D0F8C4005C60897BFFF71C
:104E78007CF9204610BD2DE9F0418F6805460C46A7
:104E880003F094FA4FF0000806467B6887F808801C
:104E980023F443737B60A17BD5F8C400FFF7FCF9CA
:104EA800A17BD5F8C400FFF73EFA304603F082FA3A
:104EB8004046BDE8F08108B58B68D0F8C4005A6850
:104EC80042F004025A60897B9B7A1943FFF7B4F9D0
:104ED800002008BD11F0780F01F07F0312D1D0F83F
:104EE800C420127993420DD20C2253430A064CBFB8
:104EF8006433043303445868C3074CBFC0F38000CD
:104F0800FF20704700235B68FFDE0020704708B56C
:104F18000B461146026832B902215522084600F0B4
:104F28007FFA552008BD0A3BC0690B2B38D8DFE84B
:104F380003F006370A0E12161A2233281E2FBDE870
:104F48000840FFF7E2BFBDE8084000F0BBB8BDE885
:104F5800084000F0FBB8BDE80840FFF74FBFBDE8C8
:104F68000840FFF77DBFBDE80840FFF784BFBDE8F4
:104F78000840FFF7A0BFC9B2D0F8C400FEF74EFC46
:104F8800D0E70B290AD1D0F8C400FEF732FCC9E7F4
:104F9800BDE80840FFF79EBFFFF7B6FD0020C1E758
:104FA80002215422084600F03BFA5420BAE70000D8
:104FB80038B50B4B0D461C6800218023C8220846D3
:104FC800636000F009F948B1064BE0610460A36131
:104FD8000123C0F8C4500020236038BD1220FCE72C
:104FE800E8000020174F000870B5344E3468D4F834
:104FF8005C31E569012B4BD1D4F8F430C4F8CC30DE
:10500800D4F8F8300E222E49D4F8CC00C4F8D030A9
:1050180004F1280300F0A9F84FF47A73C4F890302B
:10502800A36E04F13C02E36694F82F3062660E2109
:10503800A4F84C3023672046A36998470021D5F887
:10504800C400FFF770F9002394F82F201946D5F80B
:10505800C400FFF753F88021D5F8C400FFF763F9BF
:10506800002394F82F208021D5F8C400FFF746F8D4
:10507800002308220120C4E91D3223643368C4E9EF
:105088001700D3F86431226703B19847002070BD38
:105098000023C4F85C31D4F84031012B0BBFD4F89D
:1050A800D430D4F8DC30C4F8CC30C4F8CC300CBFE1
:1050B800D4F8D830D4F8E030A4E700BFE8000020E6
:1050C800740000202DE9F041D1F8088006460C460E
:1050D800D8F8087003F06AF91B4B05461B685B6A31
:1050E80033B92623636203F065F90120BDE8F08136
:1050F8007B685A0705D52123636203F05BF9042016
:10510800F4E7990709D51A0716D523F47E7323F017
:1051180002035B055B0D7B60EFE743F002037B60F6
:10512800E2686369A46AD6F8C400032C98F80E10E4
:1051380006D1FFF766F8284603F03CF90520D5E7C5
:10514800FFF741F8F7E700BFE800002038B504464C
:105158008D68D0F8C400A97BFFF7D5F8A97BD4F8EF
:10516800C400FFF7E0F8002038BD2DE9F0410546FE
:105178000E461C464FF000088F18BE4201D1BDE80C
:10518800F08116F8013B022B13D0042B06D015F83A
:10519800013B04F8013BF0E704F8018BA207FBD1BF
:1051A800284600F00FF8043544F8040BE5E704F846
:1051B800018BE307FBD4284600F01AF9023524F8DE
:1051C800020BDAE7006870470B0A017043700B0C9A
:1051D800090E8370C1707047F8B501BB334B1B686B
:1051E8001D68002D5DD0002A5DD0431C1DD0072806
:1051F80038BF07200746073222F00706072F08BFE7
:105208003146284618BFB91900F0B2F8044670B9FB
:1052180012220821022000F003F9002541E00129AB
:10522800FBD1224B1B685D68DBE70727E3E70168D2
:1052380000F108030A1A1F42A2F1080212D007F16E
:105248000800184420EA070747F8081C1849A7F17E
:10525800080347F8041C69680131696023601C1B56
:10526800121B1C46931B132B0BD9216806F108034C
:10527800E218E1500E4B53606B6801336B6022609B
:1052880032462B686560083B9B1A2B60AB6800218F
:10529800A34204BF2368AB6004F10805284600F068
:1052A800A5F82846F8BD1546FBE700BFE400002036
:1052B800EEEEFFFF10B413B1A3FB02C424B95A43A6
:1052C8005DF8044BFFF788BF00205DF8044B70477A
:1052D80001380A44914200D1704711F8013B00F8A7
:1052E800013FF7E768B150F8043C104A934208D0F0
:1052F8003BB10F4A12681168994207D052689A4226
:1053080004D019220821022000F08AB80749A0F128
:10531800080240F8041C50F8080C1968801A014467
:1053280019609968914288BF9A607047EEEEFFFF56
:10533800E400002070B5144606460D4614220021EC
:1053480000F054F824F00302A2F1080333600223AA
:10535800C6E9035273602A44044BB56042F8046CF2
:1053680042F8085D00202A606B6070BDEEEEFFFF1A
:10537800426803460068F0B5941E00EBC4008842FA
:1053880001D80020F0BDD3E90204A042F9D31D6979
:105398002C44A042F5D80024134E01324568B5428A
:1053A80019D104B9986005682C1A083CA14218D98B
:1053B800D5E90047B74209D104605C68013C5C60EC
:1053C8009C68AC4200D19860012405E0002AD8D03E
:1053D8002046013AF8E70068002AD2D0013ADDD128
:1053E800CFE7002CCED1CCE7EEEEFFFFFBF768BA93
:1053F8000088704710B550B10023C45C4CB101332C
:105408009342FAD9FF220821022000F009F8FF2070
:1054180002E011B120460B6010BD0846FCE7000011
:10542800074B10B41B681C69DA6001341C615B69A6
:1054380013B15DF8044B18475DF8044B704700BF83
:10544800E40000202DE9F041884616461C46054632
:1054580000283CD000293AD00A460021FFF7C6FFB1
:105468001D4F1E4A05F1180305F5C4703D60136011
:10547800286086B17CB14FF4D87305F5CE722B4401
:1054880007336A6023F007014544A94207D3122471
:105498002046BDE8F08102464FF4CE73EFE76A1A62
:1054A800FFF748FFAEB1002CF2D02246002130466B
:1054B800FFF79CFFF11D21F0070132199142E6D256
:1054C8003B68521A5868FFF735FF0024E0E7FA24D2
:1054D800DEE73446DCE700BFE4000020E8000020F7
:1054E80010B420B119B15DF8044BFFF7ABBFFA2037
:1054F8005DF8044B704700000D4B1B685A6A032A7D
:1055080002D1D3F8B4200AB9FF207047917B8142B9
:105518000CD1D27B996E03F15C000A700122032141
:105528001A67C3F88410114600F0D6BE9269EAE7FC
:10553800E80000202DE9F04FDFF8E8A18146DAF80D
:1055480000700D467B6A95B0032B40F0DD80D7F8DC
:10555800B46036B9022052220721FFF761FF5220BA
:105568008AE0B37B4B4500F0D380B669F1E76B491D
:10557800D7E93348B8F1000F18D0637894F800B031
:10558800022B40F0BD80082203AB2046FFF7EDFD5B
:105598009DF81120D7F8A43060499A4240F0B080B5
:1055A800BDF80E805E49B8F1000F01D1FF2063E01D
:1055B800637894F800B0042B40F09E8006AB092273
:1055C8002046FFF7D2FD9DF81A3055494B4540F06B
:1055D80093809DF81B30AB4240F08E804FF000095D
:1055E800F5692DBB07F12403F56101932378DFF8F2
:1055F80038B1A8EB03081C44B8F1000F2AD10C22DB
:1056080006A9B018FFF764FEB37BDAF80020403330
:1056180052F82330002B79D01A6C002A76D0062253
:1056280011931E6609925B6C0B9609A8984723E0B4
:105638002621284600F04AFE2A46BB690F21384633
:1056480098476B69C5E90099C5E90599C5F81C90A3
:105658001D46C6E7637894F80090042B4AD0052BC2
:1056680006D0022B08BFC846A8EB09084C44C3E77C
:10567800D7E930531BB9122015B0BDE8F08F2A685E
:105688005ABB2B460122594643F80C2B20460622CA
:10569800FFF76BFDDAF800102B8AD1F84011C3F33D
:1056A8000A02022908D1E97BC90705D513F4C053BA
:1056B8001CBFDB0A03FB02224FF0FF336B65019B23
:1056C8002A64EB612A460E213846BB69AD62AE6199
:1056D800984728B100232B60CEE76835013BC9E71E
:1056E800F3690BB9F561BFE71A465B69002BFBD17B
:1056F8005561B9E7C846B7E7A8EB0B085C4452E721
:10570800A8EB0B085C4435E75420B5E75720B3E70E
:10571800F37BAB427FF42BAF0020ADE76C00002099
:1057280088000020E8000020820000202DE9F043D6
:105738001E4600238DB00D46174669463F22804617
:10574800DDF850900093FFF755FEC8B90F4B1B6862
:10575800D3F8FC40236CB3B9009A20464146013285
:10576800FFF7B6FD0523C4E916676564C4F85490CD
:1057780001A8CDE909490193A84708B90123236481
:105788000DB0BDE8F0831220FAE700BFE800002062
:1057980038B5174B10F003001C6809D002280FD049
:1057A80014212046A36904F13C029847002006E032
:1057B800012904D1D4F84821BAB1C4F84C0138BD44
:1057C800D4F8B430002BEBD0DD690DB99B69F9E74B
:1057D800A97B914207D12A4610212046A369984700
:1057E80000206860EBE76D69EFE75420E7E700BF4A
:1057F800E8000020064B1868836ED0F8A4205C30BF
:105808001A70032301228362114600F065BD00BFB0
:10581800E800002000232DE9F04FDFF8A8A195B09B
:10582800DAF80040CDE903330593D4F8A4300746ED
:10583800834205D14FF00008404615B0BDE8F08F0F
:10584800DFF87891D4E933561EB9AFB14FF0FF08AD
:10585800F2E76B7895F80080022B03D0A6EB0806D8
:105868004544F1E703AB082249462846FFF77DFC8B
:105878009DF81130BB42F1D1D4F8A4308BBB00267F
:10588800012213212046A369C4F8A46062629847E4
:10589800002FCFD04949082204F1A8032846C4F8AC
:1058A800A470FFF762FC9DF81330B14613F0400F67
:1058B80014BF02210121B346DAF80020C3F34013D4
:1058C800BDF80E80C2F84411C2F848310096B8F10C
:1058D800000F1CD1032213212046A3696262984756
:1058E800AAE74FF00308D4F8B460002EC7D0736855
:1058F800CDF824800B96119313B15B6C09A89847D7
:10590800D6F81890304600F0BBFB4E46EDE72B78F2
:1059180001936B780B2B09D14FF0010B95F802908E
:10592800EE78019BA8EB03081D44D0E7042BF8D1BF
:1059380006AB092228462249FFF717FC9DF81B30C1
:10594800002BEED1DAF80030BBF1000F24D09DF81F
:105958001A204A451BD1D3F8FC20116C01290AD121
:10596800916D894507D1D16DB94204D109F1400142
:1059780043F821200092013E14BF4FF0010B4FF075
:10598800000B00224146284600F09EFBC9E700991B
:10599800403243F82210EEE7D3F8FC100A6C012AD3
:1059A800EFD19DF81A20886D8242EAD1C86DB842BD
:1059B80004BF403243F82210E3E700BF6C00002028
:1059C80088000020E80000202DE9F04F466A814653
:1059D80091B0002E40F0B080724A90F83DA090F847
:1059E8003C803E301568FFF703FD074609F140008B
:1059F800FFF7FEFC044609F14200FFF7F9FCAAF1A3
:105A0800060101290346674A07D8390A11F0600FD1
:105A18001CBF28F0600848F0200808F06001402901
:105A280040F08C801168D1F86CB1BBF1000F00F028
:105A38008780D1F86811514540F082804FF4807218
:105A4800059205AA0192D9F80C20394600925046D1
:105A580022460393D847044658B90322039BC5F846
:105A6800842005991A4605F15C0000F035FC2646AD
:105A780003E005F13C0000F0D1F9304611B0BDE873
:105A8800F08FBC4279E0BAF10C0F53D801A252F85A
:105A98002AF000BFD15A0008EB5A00083D5B000805
:105AA800F75A00083D5B0008035B0008115B00081B
:105AB8003D5B00081D5B0008235B00082B5B0008AA
:105AC800335B0008835A00081A462146404600F016
