:020000040800F2
:1000000000500020015900084959000849590008CA
:1000100049590008495900084959000800000000E2
:100020000000000000000000000000004959000826
:1000300049590008000000004959000849590008C2
:100040004959000849590008495900084959000808
:1000500049590008495900084959000849590008F8
:1000600049590008495900084959000849590008E8
:10007000F54C0008494D0008495900084959000845
:1000800049590008495900084959000849590008C8
:1000900035550008495900084959000849590008D0
:1000A00049590008495900084959000849590008A8
:1000B0000D4F0008495900084959000849590008DE
:1000C0004959000849590008495900084959000888
:1000D0004959000849590008E94F000849590008E2
:1000E0004959000849590008495900080000000012
:1000F0000000000000000000000000000000000000
:0C01000000000000000000005FF808F1A3
:10010C000348044B834202D0034B03B1184770479A
:10011C00E0010020E0010020000000000548064935
:10012C000B1AD90F01EBA301491002D0034B03B1F9
:10013C0018477047E0010020E0010020000000009B
:10014C0010B5064C237843B9FFF7DAFF044B13B113
:10015C000448AFF300800123237010BDE0010020A0
:10016C00000000004C59000808B5044B1BB10449B1
:10017C000448AFF30080BDE80840CFE70000000062
:10018C00E40100204C590008F8B58B890C4619077E
:10019C0007463BD46268002A55DDE66A002E50D033
:1001AC0000223D683A6013F4805250D10123384646
:1001BC00216AB047421C5CD0A389E66A5B0705D56F
:1001CC006368C01A636B0BB1236CC01A0246216AB8
:1001DC0000233846B047411C3BD13B68002B38D03C
:1001EC001D2B01D0162B4BD100232269C4E900230F
:1001FC00616B3D6029B304F14403994202D0384647
:10020C0000F082FA002318466363F8BD2669C6B174
:10021C009A0718BF0023256808BF63692660AD1BC9
:10022C00A3600CE02B463246D4F828C03846216A2D
:10023C00E047B0F1000CA5EB0C05664412DD002D77
:10024C00F0DC0020F8BD226C002AA6DCF9E7606D1A
:10025C00B4E70022236962602360A389DB04C7D55D
:10026C006065C5E7A3894FF0FF3043F04003A381DD
:10027C00F8BD3B68002B9FD01D2B06D0162B04D04D
:10028C00A38943F04003A381F8BD00203D60F8BD75
:10029C0038B50B69BBB10C46054608B18369B3B1DF
:1002AC000D4B9C4211D00D4B9C4213D00C4B9C42DD
:1002BC0008BFEC68B4F90C302BB121462846BDE8D8
:1002CC003840FFF761BF002038BD6C68F2E700F0E2
:1002DC0041F9E5E7AC68EDE7A4590008845900083A
:1002EC006459000838B540B303690446E3B1174BB1
:1002FC001D680DB1AB69CBB1154B9C420FD0154BA2
:10030C009C4221D0144B9C4208BFEC68B4F90C30D1
:10031C0053B121462846BDE83840FFF735BF6C681D
:10032C00B4F90C30002BF4D1002038BD284600F075
:10033C0011F9074B9C42E2D1F1E7084B08491868C8
:10034C00BDE8384000F046B9AC68DFE7000000209B
:10035C00A45900088459000864590008C4590008BD
:10036C009D02000800207047014900F033B900BF1E
:10037C009D02000800207047682270B54D1E02FBDC
:10038C0005F50E4605F1740100F024FA044640B15F
:10039C0000210C30C4E9016005F16802216000F015
:1003AC0061F9204670BD00BF274B2DE9F0411E6856
:1003BC000746B36953B34FF004084836D6E9013405
:1003CC00013B04D51EE05A1C04F168041AD0B4F9A0
:1003DC000C50013B002DF6D11C4B08222946C4E9D8
:1003EC000055C4E90253C4E904556566A56104F1DE
:1003FC005C0000F037F9C4E90D55C4E912552046EC
:10040C00BDE8F08135682DB12E46D7E7304600F0B7
:10041C001FF8D0E74FF4D671384600F0DBF90446EC
:10042C0068B1056029460546C0F804800C304FF4CD
:10043C00D072A06000F016F934602E46BEE70C2393
:10044C0030603B60DBE700BFC45900080100FFFFD0
:10045C000023334A2DE9F0471268C0E91233904269
:10046C00036508BF01232F4908BF836181620546DC
:10047C00FFF79AFF034628466B60FFF795FFA860CD
:10048C0028460024FFF790FF04236E68DFF898A03D
:10049C00DFF89890DFF89880264FE8600822F36028
:1004AC002146C6E90044C6E904447466B460B461EC
:1004BC0006F15C0000F0D6F81F4BC6E9086AC6E9E5
:1004CC000A983763AE680822F3602146C6E90044F7
:1004DC00C6E904447466B460B46106F15C0000F0D3
:1004EC00C1F8164BC6E9086AC6E90A983763EE6884
:1004FC002146F3600822C6E90044C6E90444746648
:10050C00B460B46106F15C0000F0ACF80123C6E9FC
:10051C00086AC6E90B87C6F82890AB61BDE8F0877E
:10052C00C459000875030008550A00087D0A000824
:10053C00BD0A0008DD0A00080900010012000200D3
:10054C00024B0349186800F045B800BFC4590008B5
:10055C009D020008836903B97AE77047704700BFB2
:10056C00704700BF704700BF704700BF024B034984
:10057C00186800F00FB800BF0000002071030008DD
:10058C00024B0349186800F005B800BF00000020BA
:10059C00810300082DE9F0410026884600F1480748
:1005AC00D7E90154013D0ED4A389013D012B06D995
:1005BC00B4F90E30013302D02046C04706436B1C01
:1005CC0004F16804F0D13F68002FE9D13046BDE852
:1005DC00F08100BF2DE9F8434FF00009074688462B
:1005EC0000F14806D6E90154013D10D4A389013D20
:1005FC00012B08D9B4F90E30013304D0214638460A
:10060C00C04749EA00096B1C04F16804EED1366856
:10061C00002EE7D14846BDE8F88300BF70B50D4EFB
:10062C000D4D761BB61006D0002455F8043B013452
:10063C009847A642F9D1094E094D05F081F9761B70
:10064C00B61006D0002455F8043B01349847A64256
:10065C00F9D170BD7C5E00087C5E0008805E0008ED
:10066C007C5E0008830730B548D0541E002A3FD06A
:10067C000346CAB201E0013C3AD303F8012B9D07B3
:10068C00F9D1032C2DD9CDB245EA05250F2C45EA1D
:10069C00054536D9A4F1100222F00F0C03F1200EFF
:1006AC00E6444FEA121C03F1100242E9045542E9F8
:1006BC00025510327245F8D10CF1010214F00C0FF6
:1006CC0003EB021204F00F0C13D0ACF1040323F073
:1006DC0003030433134442F8045B9342FBD10CF044
:1006EC0003042CB1CAB21C4403F8012B9C42FBD16D
:1006FC0030BD64461346002CF4D1F9E7034614468A
:10070C00BFE71A46A446E0E7002952D038B551F8A5
:10071C00043C0C1F002BB8BFE418054600F0BAFBD4
:10072C002B4A1368002B45D0A3420CD921686018C2
:10073C00834228D0636028461460BDE8384000F03E
:10074C00ABBBA3420FD81A465B68002BF9D11168DA
:10075C00501884421DD034D3636054602846BDE8E1
:10076C00384000F099BB11685018A04215D028D819
:10077C00216860188342EFD118685B680144C4E9B2
:10078C0000135460EAE718685B680144C4E900137D
:10079C00D1E7236819441160E0E720680144501840
:1007AC0083421160DAD1D3E900030144C2E900139A
:1007BC00D4E77047284663601460BDE8384000F009
:1007CC006BBB0C2328462B60BDE8384000F064BBA3
:1007DC00FC010020F8B5CD1C25F0030508350C2DC7
:1007EC0038BF0C25002D064623DBA94221D8264F05
:1007FC0000F050FB3A6822B3144603E063682246CB
:10080C00FBB11C4623685B1BF8D40B2B15D8636813
:10081C0094420CBF3B605360304600F03DFB04F14A
:10082C000B00231D20F00700C21A01D01B1AA35085
:10083C00F8BD0C2300203360F8BD23601C442560F8
:10084C00EAE77968D1B12946304600F0EBF8431C51
:10085C0001460CD0C41C24F00304A04205D0304641
:10086C00611A00F0DFF8013001D02560D4E70C23C9
:10087C003046336000F010FB0020F8BD304600F02D
:10088C00D1F87860DFE700BFFC0100200EB410B592
:10089C00044683B008B183695BB106AB2046059A68
:1008AC00A168019300F034FB03B0BDE8104003B025
:1008BC007047FFF74FFEF0E70FB410B50A4B82B04C
:1008CC001C680CB1A3695BB105AB2046049AA16806
:1008DC00019300F01DFB02B0BDE8104004B070475E
:1008EC002046FFF737FEEFE70000002010B5044666
:1008FC0082B008B1836933B12046A26802B0BDE86A
:10090C00104000F047BE0191FFF724FE0199F3E778
:10091C0038B50B4B05461C680CB1A36933B129469D
:10092C002046A268BDE8384000F034BE2046FFF7F0
:10093C0011FE29462046A268BDE8384000F02ABEC8
:10094C000000002070B506460D46002830D08369A3
:10095C0063B384682C4B9C4234D02C4B9C423CD0CF
:10096C002B4B9C4208BFF468A3891B072ED5236927
:10097C0063B3297839B932E023685A1C22601970A4
:10098C0015F8011F59B3A368013B002BA360F3DAE0
:10099C00A269934201DB0A29EED12246304600F0CF
:1009AC00C9F80130ECD14FF0FF3070BDFFF7D2FD2C
:1009BC00B369B468002BCDD13046FFF7CBFD124B99
:1009CC009C42CAD17468A3891B07D0D421463046F7
:1009DC0000F028F90028CCD0E5E7B468C4E7A36898
:1009EC00013B002BA36008DA22460A21304600F0B6
:1009FC00A1F80130D7D00A2070BD0A222368104616
:100A0C00591C21601A7070BDA45900088459000843
:100A1C0064590008024B01461868FFF793BF00BFEA
:100A2C0000000020002238B5064D044608462A6016
:100A3C0001F078F9431C00D038BD2B68002BFBD09B
:100A4C00236038BD0402002010B50C46B1F90E101D
:100A5C0000F028FE002803DB636D0344636510BDC2
:100A6C00A38923F48053A38110BD00BF00207047DD
:100A7C002DE9F0410C46B1F90C101F46CB0505468B
:100A8C0016460BD421F48051A1813B4632462846B0
:100A9C00B4F90E10BDE8F04100F0AEB8B4F90E1088
:100AAC000223002200F052F9B4F90C10EAE700BF5F
:100ABC0010B50C46B1F90E1000F048F9A389421C90
:100ACC000EBF23F4805343F480536065A38110BDA3
:100ADC00B1F90E1000F028B920F0030110F003005A
:100AEC00C0F1000051F8043B00F1040C4FEACC0CAF
:100AFC006FF000021CBF22FA0CF213434FF0010CF2
:100B0C004CEA0C2C4CEA0C4CA3EB0C0222EA030230
:100B1C0012EACC1204BF51F8043B0430F4D0C2F1F9
:100B2C00000102EA0102B2FA82F2C2F11F0200EBEA
:100B3C00D2007047F8B506460D46144608B18369D5
:100B4C0043B3254B9C422AD0244B9C4229D0244BA6
:100B5C009C4208BFF468A269A389A2601A0722D537
:100B6C00236903B322686169D31AEDB299422F4607
:100B7C0029DD0133A1680139A160511C2160157078
:100B8C0062699A4216D0A389DB0701D50A2D11D0D0
:100B9C003846F8BDFFF7DEFC0F4B9C42D4D174688D
:100BAC00D9E7B468D7E72146304600F03BF838B9AE
:100BBC002369D7E721463046FFF76AFB0028E7D0C8
:100BCC004FF0FF37E4E721463046FFF761FB002882
:100BDC00F6D101232268CDE7A459000884590008F6
:100BEC006459000803460A46024908681946FFF78B
:100BFC00A1BF00BF0000002038B50C4611460022F2
:100C0C008446074D20462A601A46644603F046FF88
:100C1C00431C00D038BD2B68002BFBD0236038BDA3
:100C2C00040200203C4B70B51D6806460C460DB105
:100C3C00AB69E3B1394B9C421FD0394B9C424DD030
:100C4C00384B9C4208BFEC68B4F90C3018079AB2C8
:100C5C0019D5216911B312F001002FD0002560695C
:100C6C00A5604042A06100292ED0002070BD28460E
:100C7C00FFF770FC294B9C42DFD16C68B4F90C3047
:100C8C0018079AB2E5D4D1063ED5520728D421696B
:100C9C0043F00803A3819AB20029DCD102F420703E
:100CAC00B0F5007FD7D02146304600F065F8B4F996
:100CBC000C3021699AB212F00100CFD1950758BFC0
:100CCC006069A0600029D0D1120658BF0846CDD566
:100CDC0043F040034FF0FF30A38170BDAC68B3E725
:100CEC00616B51B104F14402914204D03046FFF7DC
:100CFC000BFDB4F90C30002262630022216923F051
:100D0C002403C4E90012C3E7092243F04003326014
:100D1C004FF0FF30A38170BD00000020A4590008E3
:100D2C008459000864590008002238B5064D044661
:100D3C0008462A6000F0D6FF431C00D038BD2B6853
:100D4C00002BFBD0236038BD0402002038B50C46C4
:100D5C00114600228446074D20462A601A466446F6
:100D6C0000F0D8FF431C00D038BD2B68002BFBD003
:100D7C00236038BD04020020F0B58B890C4699071E
:100D8C0097B007D5012204F14703C4E9043223606C
:100D9C0017B0F0BDB4F90E10054600292DDB6A46DC
:100DAC0000F096FC002827DB019E4FF4806706F4C8
:100DBC007046A6F50056B6FA86F6394628467609E8
:100DCC00FFF708FD30B3A3891A4A43F08003AA62E7
:100DDC00C4E90407A3812060002ED9D02846B4F9B9
:100DEC000E1000F001FE0028D2D0A38923F00303DB
:100DFC0043F00103A381CBE7A38913F0800F14BF49
:100E0C0040274FF48067284639460026FFF7E2FC5E
:100E1C000028D8D1B4F90C309A05B9D4012123F0AB
:100E2C00030304F1470243F00203C4E90421A38144
:100E3C002260ADE77503000870B50C46B1F90E10D1
:100E4C00164600291D4696B013DB6A4600F040FC9E
:100E5C0000280EDB01994FF4806301F47041A1F579
:100E6C000051B1FA81F1002049092960336016B0B4
:100E7C0070BD0022B4F90C302A601B0604D5402347
:100E8C000020336016B070BD4FF4806300203360D7
:100E9C0016B070BD704700BF704700BF9368013B30
:100EAC00002B936005DAD2F818C0634507DB0A29DA
:100EBC0005D01368581C1060084619707047FFF76E
:100ECC0039BE00BF9BB1F8B5134406460F46541EFD
:100EDC005D1E01E0AC4208D03A46304614F8011FC2
:100EEC00FFF7DCFF431CF5D1F8BD0020F8BD002056
:100EFC00704700BF936810B5144613B91846536079
:100F0C0010BD00F0F9FB0023C4E9013310BD00BF94
:100F1C002DE9F04F0E4692461C4607469FB018B17D
:100F2C008369002B00F0A880954B9E4200F0AA80AC
:100F3C00944B9E4200F0B580934B9E4208BFFE68D6
:100F4C00B389180740F1A3803369002B00F09F8010
:100F5C00002320220B9330239AF8001005940125CE
:100F6C008A4C8DF831208DF8323000297DD0D14655
:100F7C000B4604E019F8013F002B00F09480252B60
:100F8C00F8D1B9EB0A0B40F0918099F80030002BA6
:100F9C006BD000234FF0FF3209F10109CDE9072393
:100FAC00069309938DF85B301C9304E0001B05FA43
:100FBC0000F018430690CA460522204619F8011B7A
:100FCC0000F024FD069B0028F0D1D90644BF202256
:100FDC008DF85B201A0748BF2B229AF8001048BFE7
:100FEC008DF85B202A2972D1059A116804320029E8
:100FFC000592C0F2A08009919AF801100AF1010A39
:10100C002E2976D0DFF888910322484600F0FEFCAA
:10101C0048B14022069BA0EB090002FA00F0034302
:10102C000AF1010A06931AF8011B062259488DF899
:10103C00301000F0EBFC002800F08380564B002BA6
:10104C006CD005A9009132463846544B06A9AFF333
:10105C0000800390039B013307D00B9B039A9AF8F3
:10106C00001013440B93002981D1B3895B0615D46E
:10107C000B981FB0BDE8F08FFFF76CFA404B9E4207
:10108C007FF456AF7E68B38918073FF55DAF3146E4
:10109C003846FFF7C7FD00283FF45AAF4FF0FF303A
:1010AC00E7E7BE684CE7B9EB0A0BDED0D046CAF1D5
:1010BC00010A03E0934538D918F8011F3246384627
:1010CC00FFF7ECFE01300AEB0802F3D1CDE7A1F1FA
:1010DC003002092A94D8099B1AF8011F03EB8303E9
:1010EC0002EB4303A1F13002092AF5D92E29099309
:1010FC0088D19AF801102A292DD1059B0AF10200FA
:10110C001A680433002A0593B8BF4FF0FF339AF8DE
:10111C00021007928246B8BF079373E7059B07330B
:10112C0023F007030833059397E70B9A99F80030DF
:10113C005A440B922BE7494243F002030991069360
:10114C005AE705A9009132463846144B06A900F01F
:10115C00CBF803907EE70023A1F13002092A0AF1B3
:10116C00010A07933FF64EAF1AF8011F03EB8303F6
:10117C0002EB4303A1F13002092AF5D9079341E7A9
:10118C00A45900088459000864590008405E0008FE
:10119C00485E00084C5E000800000000D10E0008FC
:1011AC008C4600B586461346034A714610685DF8B6
:1011BC0004EB6246FFF7ACBE000000202DE9F047BF
:1011CC0091461E460A698B680C469A42B8BF1A466D
:1011DC00C9F8002091F843300546DDF8208013B1A2
:1011EC000132C9F80020226891065DD5D9F800308B
:1011FC000233C9F80030226812F0060F11461ED1D6
:10120C00E168CB1A002BD8BF114618DD002704F17A
:10121C00190A06E0D9F80030E268A2EB030CBC45D1
:10122C000CDD0123524631462846C047013007F1F8
:10123C000107EFD14FF0FF30BDE8F087216894F83B
:10124C004330003B18BF01238A060AD53021E2182F
:10125C0082F8431094F845105A1C2244023382F849
:10126C0043103146284604F14302C0470130E1D017
:10127C00236803F00603042B1DD0A3682269934254
:10128C0025DD00279B1A1F4404F11A09002401E0F4
:10129C00BC421CDA01234A4631462846C04701307D
:1012AC0004F10104F4D1C5E712F0060F12D0003B93
:1012BC0018BF0123D5E7D9F80030E1682269C91AB3
:1012CC00A36821EAE1779342DCDC0029DCDC002016
:1012DC00BDE8F087E168D9F80030CB1A002BD8BFF5
:1012EC00114693DCABE700BF2DE9F04317460A7EAD
:1012FC0085B00C46064698460C9D01F1430C002A1D
:10130C0033D0A2F15803D9B2202967D8202B65D845
:10131C00DFE813F0DD006400640064006400640026
:10132C0064006400640064006400A3006E00640048
:10133C006400640064006E00640064006400640077
:10134C0021007F00BF0064006400AE0064007F00D9
:10135C0064006400E40023681A0640F102812B68E3
:10136C006269191D29601B681A600023E14623611C
:10137C003B4621463046CDF8008003AAFFF71EFFFE
:10138C00013020D04A46394630462369C0470130E7
:10139C0019D02368E0689B07039919D5431A002BD1
:1013AC0016DD002504F1190904E0E0680399431ADD
:1013BC00AB420DDD01234A4639463046C047013069
:1013CC0005F10105F1D14FF0FF3005B0BDE8F08318
:1013DC008842B8BF084605B0BDE8F083012384F805
:1013EC00422004F142092361002384F84330BFE713
:1013FC002368190602D45A0600F1BF8029680A68CE
:10140C00043129601146002A6ADB0A25DFF87CE1E9
:10141C0010E02368180640F19A802B68191D29608A
:10142C0019686F2A0CBF08250A25DFF860E1002334
:10143C0084F843306268002AA2607DDB236823F0C5
:10144C0004032360002959D1002A77D1E146082DE5
:10145C0063D0ACEB090323618AE701222B6804F10A
:10146C004209196804332B6084F842102261BBE7EF
:10147C002B6800211A1D2A60D3F800906268484638
:10148C0000F0C4FA00287FD0A0EB09006060206156
:10149C00AAE7236843F0200323607822DFF8F0E00A
:1014AC0084F845202A68111D2960190642D45D066E
:1014BC0040D51188D80744BF43F02003236000298E
:1014CC0043D12368102523F020032360AFE7582372
:1014DC00DFF8B8E084F845302368E3E72368DCE7FD
:1014EC002D2284F8432062684942002AA26002DB64
:1014FC0023F0040323600A25DFF890E0E146B1FBFA
:10150C00F5F30A4605FB131019461EF80030AA42E3
:10151C0009F8013DF3D2082D9BD12368D90798D542
:10152C00626823699A4294DC302309F1FF3989F807
:10153C0000308EE71168BDE70029DFD19EF800303E
:10154C0004F1420984F8423081E710256FE713F06B
:10155C00400F2B6803F1040129600CBF196819882E
:10156C005FE713F0400F2B68626903F104012960F7
:10157C001B6814BF1A801A60F7E62A68B2F90010CB
:10158C0004322A600A463EE7606880E7545E000831
:10159C00685E000870B505460E46144608B18369AE
:1015AC00CBB11A4B9C421BD0194B9C4224D0194BEB
:1015BC009C4208BFEC68A368013B002BA36015DAC2
:1015CC00A26993421ADBF0B20A2817D023685A1C7E
:1015DC0022601E7070BDFEF7BDFF0C4B9C42E3D128
:1015EC006C68A368013B002BA360E9DB2368F0B2B5
:1015FC005A1C22601E7070BDAC68DCE72246314676
:10160C002846BDE87040FFF795BA00BFA459000802
:10161C0084590008645900081E4B70B51E680546B5
:10162C000C460EB1B369CBB11B4B9C421CD01B4B6F
:10163C009C4225D01A4B9C4208BFF468A368013B1E
:10164C00002BA36016DAA26993421BDBE8B20A28CE
:10165C0018D023685A1C22601D7070BD3046FEF7EE
:10166C0079FF0D4B9C42E2D17468A368013B002BBF
:10167C00A360E8DB2368E8B25A1C22601D7070BDC1
:10168C00B468DBE7224629463046BDE87040FFF7D8
:10169C0051BA00BF00000020A4590008845900086A
:1016AC006459000838B50C46114600228446074D93
:1016BC0020462A601A46644603F0F8F9431C00D011
:1016CC0038BD2B68002BFBD0236038BD04020020F2
:1016DC0070B50026074D0446084611462E6000F0F2
:1016EC0009FB431C00D070BD2B68002BFBD0236082
:1016FC0070BD00BF040200209368002B00F0B7807F
:10170C002DE9F04FB1F90C300C46190780461746FD
:10171C0083B098B225D523691BB310F002033D6842
:10172C002DD04FF0000B5E46DFF8B8A2002E00F073
:10173C008B80564533465A4628BF53464046216A4D
:10174C00D4F828C0E047002840F38780BB68834466
:10175C001B1A361ABB60002BE8D1002003B0BDE881
:10176C00F08F21464046FFF75DFA002840F03681A5
:10177C00B4F90C303D6898B210F00203D1D110F0DE
:10178C00010976D14E46002E5AD08205D4F808B005
:10179C0040F1B580B3455A4600F2CD8010F4906FFD
:1017AC0000F0CB8023682169A3EB010B636903EB89
:1017BC00430A0AEBDA7A0BF101034FEA6A0A334463
:1017CC005345524684BF9A465246430540F1EA803F
:1017DC0011464046FEF7FEFF002800F0F9805A46FD
:1017EC002169019000F05AF9A289019B22F49062C0
:1017FC0042F08002A28103EB0B0023613246AAEB7C
:10180C000B03B346C4F814A0A3602060B2460026B4
:10181C004946019200F0B8F9A3682168019AA3EB3C
:10182C000B030A44A3602260B868D144A0EB0A0001
:10183C00B860002891D0B4F90C0080B2002EA4D16D
:10184C00D5E9009608359EE7D5E900B608356DE771
:10185C0021464046FEF71CFD80B3B4F90C304FF026
:10186C00FF3043F04003A38103B0BDE8F08F0020AC
:10187C0070471E46AA46994618461D4656B3002880
:10188C0032D04A4620682169B24228BF324688428B
:10189C00636904D9A16803EB010B5A4574DC9342CC
:1018AC0065DC2A464046216AD4F828C0E047B0F1EE
:1018BC00000BD2DDB9EB0B09CAD00120BB685D442B
:1018CC00A3EB0B03A6EB0B06BB60002B3FF445AF61
:1018DC00002ED4D10AF1080353F8046C9A4653F83D
:1018EC00085C0833002EF7D032460A21284600F057
:1018FC008DF8002869D00130A0EB0509C1E72068FC
:10190C00236998421BD86369B34218D86FF0004C16
:10191C00B44528BFB4469CFBF3FC4A4603FB0CF3CE
:10192C004046216AD4F828C0E047B0F1000A94DDA3
:10193C00A6EB0A0678E7B3463246206866E7B3455D
:10194C00DA4628BFB2464946524600F01DF9A36854
:10195C002268A3EB0A035244A3602260002BE7D158
:10196C0021464046FEF794FC0028E1D075E7294655
:10197C009346019200F008F9A368019A9B1AA360A0
:10198C0023681A44226095E729465A4600F0FCF871
:10199C00236821465B4440462360FEF779FC00280F
:1019AC0088D05AE7404600F06BF9034600287FF4D4
:1019BC0022AF40462169FEF7A7FE0C22B4F90C3089
:1019CC00C8F8002023F0800349E7721C914659E7C0
:1019DC000C22B4F90C30C8F8002040E74FF0FF306F
:1019EC00BCE600BF00FCFF7F002238B5064D044664
:1019FC0008462A6000F086F9431C00D038BD2B68DD
:101A0C00002BFBD0236038BD040200205FFA81FC60
:101A1C00810710D00346511E2AB90AE09A071846CE
:101A2C000AD0013905D3184613F8012B6245F5D1BC
:101A3C00704700207047114603290CD80029F8D0B4
:101A4C000346014401E08B42F3D0184613F8012BF6
:101A5C006245F8D1ECE7024610B54CEA0C2444EA96
:101A6C0004441046036804326340A3F1013E2EEA9D
:101A7C00030313F0803F04D1043903291046F0D836
:101A8C0051B10346014401E08B4205D0184613F8CE
:101A9C00012B6245F8D110BD002010BD844641EAEF
:101AAC00000313F0030349D1403A23D30B680360BE
:101ABC004B6843608B688360CB68C3600B690361C0
:101ACC004B6943618B698361CB69C3610B6A0362A8
:101ADC004B6A43628B6A8362CB6AC3620B6B036390
:101AEC004B6B43638B6B8363CB6BC3634030403175
:101AFC00403ADBD230320BD30B6803604B68436047
:101B0C008B688360CB68C36010301031103AF3D20D
:101B1C000C3205D351F8043B40F8043B043AF9D29B
:101B2C00043208D0D2071CBF11F8013B00F8013B6E
:101B3C0001D30B8803806046704700BF082A13D37B
:101B4C008B07B1D010F00303AED0C3F10403D21A4B
:101B5C00DB071CBF11F8013B00F8013BA4D331F8A3
:101B6C00023B20F8023B9FE7043AD9D3013A11F823
:101B7C00013B00F8013BF9D20B7803704B784370B2
:101B8C008B7883706046704788420DD98B188342DE
:101B9C000AD900EB020CBAB1624613F801CD994296
:101BAC0002F801CDF9D170470F2A0ED8034602F185
:101BBC00FF3C4AB10CF1010C013B8C4411F8012B98
:101BCC00614503F8012FF9D1704740EA01039B07E7
:101BDC004FD1A2F1100370B501F1200C23F00F05C9
:101BEC0001F1100E00F11004AC441B095EF8105CFE
:101BFC000EF1100E44F8105C5EF81C5C103444F8C6
:101C0C001C5C5EF8185C44F8185C5EF8145CE645E5
:101C1C0044F8145CEAD1013312F00C0F01EB031100
:101C2C0002F00F0400EB031327D08E46043C24F083
:101C3C0003064FEA940C1E441C1F5EF8045B44F828
:101C4C00045FB442F9D10CF1010402F0030203EB7E
:101C5C00840301EB840102F1FF3C4AB10CF1010C4D
:101C6C00013B8C4411F8012B614503F8012FF9D18C
:101C7C0070BD034602F1FF3C9CE72246EBE700BF38
:101C8C00F8B51446F9B1CAB106460D4600F020F875
:101C9C00A04202D32F463846F8BD21463046FEF707
:101CAC0099FD07460028F6D022462946FFF7F6FE96
:101CBC0030462946FEF728FD3846F8BD2746FEF784
:101CCC0023FD3846F8BD1146BDE8F840FEF782BD4D
:101CDC0051F8040C0028A0F10400BCBF0B58C0182C
:101CEC00704700BF5822024B4FF0FF301A6070470C
:101CFC00040200205822024B4FF0FF301A6070474C
:101D0C00040200205822024B00201A60704700BFCA
:101D1C00040200205822024B4FF0FF301A6070472B
:101D2C0004020020044A05491368002B08BF0B4627
:101D3C00184410601846704708020020182E002026
:101D4C0070472DE9F04F0D680446C5F30F254FF091
:101D5C000F0A95FAA5F20327B2FA82F24FF0040C9F
:101D6C004FF0011E40F2011835FA02F001D1BDE826
:101D7C00F08F012393402B4265D0072A88BFA2F134
:101D8C0008034E688ABF0EFA03F308FA02F343F015
:101D9C008063082E0ED14FEA132999FAA9F9B9FAE2
:101DAC0089F9E06820EA132B086900FA09F040EA87
:101DBC000B00E06093FAA3FBBBFA8BFB4FEA1369B1
:101DCC0054F809004FEA8B0B0AFA0BFB20EA0B00C4
:101DDC0093FAA3FBBBFA8BFB4FEA8B0B06FA0BF6C1
:101DEC00064344F80960486820F0080001282AD10D
:101DFC0093FAA3FBBBFA8BFB4FEA8B0B07FA0BFB9B
:101E0C0026EA0B0693FAA3FBBBFA8BFB88684FEA16
:101E1C008B0B00FA0BF093FAA3FBBBFA8BFB93FA38
:101E2C00A3F3B3FA83F3304344F80900CE684FEAC6
:101E3C008B0B0CFA0BFB9B0020EA0B0006FA03F34E
:101E4C00184344F8090001328EE702460068F0B5E9
:101E5C0010F0400027D1D1E900373B438F684D6922
:101E6C003B43CF6816683B430F690C6A3B438F6951
:101E7C002B433B43CF6926F47F463B43234326F059
:101E8C00BF06334313605368B4F5005F23F00403BB
:101E9C0043EA1545556001D18B8C1361D36923F44A
:101EAC000063D361F0BD0120F8E784B001A880E89D
:101EBC000E0004B00020704703464FF43F42002050
:101ECC00A3F84400A3F840207047B0F8403023F446
:101EDC007C535B045B0CA0F8403000207047002062
:101EEC00704784B010B5044603A880E80E000020AB
:101EFC000123A4F84030A4F84000A4F84400A4F84E
:101F0C005000BDE8104004B070470000F0B50A78EE
:101F1C00CD7830F82240034624F4EC4424F07004CD
:101F2C002404240C032D48D8DFE805F00244424079
:101F3C00284644F4007448F28006344323F82240C7
:101F4C0033F822408C4FA4B23C401443344323F862
:101F5C0022400C7B03EB021C002C7BD1CE884C78EE
:101F6C00760876005CB3B3F85040A4B26444A4F88D
:101F7C00006433F822104E0609D533F8221089B2CA
:101F8C00394041F4004141F0C00123F8221033F8EC
:101F9C0022107A4C89B2012D01EA040101D081F0A2
:101FAC00200141F4004141F08001A9E044F4C064F7
:101FBC000020C0E744F48064FAE70120BBE7B3F8E3
:101FCC0050400D69A4B26444A4F80864B3F85040BE
:101FDC00A4B264446DBBB4F80C1421F4F8410904A8
:101FEC00090CA4F80C14B4F80C146FEA41416FEA14
:101FFC00514189B2A4F80C1433F822104F040DD5BA
:10200C0033F8221021F4E04121F070010904090C8D
:10201C0041F4404141F0800123F8221033F82210A2
:10202C0021F4804121F070010904090C81F4405124
:10203C00B7E73E2D05D86908ED0748BF0131890285
:10204C00D7E76E09E9064E4908BF06F1FF3641EAAB
:10205C008621CEE733F82260B6B23E4046F4014604
:10206C0046F0800623F82260B3F850400E89A4B2E3
:10207C00760864447600A4F800644E89B3F85040A6
:10208C007608A4B264447600A4F808644978D1BBFD
:10209C0033F822104E0409D533F8221089B2394096
:1020AC0041F4404141F0800123F8221033F8221012
:1020BC004D060DD533F8221021F4E04121F07001CA
:1020CC000904090C41F4004141F0C00123F822102D
:1020DC0048F2800433F8221021F4804121F0700181
:1020EC000904090C81F44051214323F8221033F8E0
:1020FC00221021F4E04121F040010904090C214394
:10210C0023F82210F0BD33F822104C0409D533F813
:10211C00221089B2394041F4404141F0800123F84A
:10212C00221033F8221049060DD533F8221021F471
:10213C00E04121F070010904090C41F4004141F027
:10214C00C00123F8221033F822100C4C89B2214024
:10215C00012D18BF81F0200141F4004141F08001B4
:10216C0023F8221033F8221021F4804121F0700161
:10217C000904090C15E700BF8F8FFFFFBF8FFFFF0E
:10218C000080FFFF4A780B78097BD9BB0AB330F883
:10219C00232051060DD530F8232022F4E04222F002
:1021AC0070021204120C42F4004242F0C00220F8F9
:1021BC00232030F8232022F4E04222F040021204C3
:1021CC00120C42F4004242F0800220F8232000203E
:1021DC00704730F8232052040DD530F8232022F418
:1021EC00E04222F070021204120C42F4404242F01F
:1021FC00800220F8232030F8232022F4804222F0A1
:10220C007002DCE7002A48D130F8232051040DD5A8
:10221C0030F8232022F4E04222F070021204120C57
:10222C0042F4404242F0800220F8232030F8232070
:10223C0052060DD530F8232022F4E04222F0700231
:10224C001204120C42F4004242F0C00220F8232087
:10225C0048F2800130F8232022F4E04222F0700290
:10226C001204120C42F4004242F0C00220F8232067
:10227C0030F8232022F4804222F070021204120C57
:10228C000A4320F8232030F8232022F4E04222F0E5
:10229C0040021204120C0A4397E730F82320510431
:1022AC000DD530F8232022F4E04222F07002120403
:1022BC00120C42F4404242F0800220F8232030F805
:1022CC00232052060DD530F8232022F4E04222F0D0
:1022DC0070021204120C42F4004242F0C00220F8C8
:1022EC00232048F2800130F8232022F4E04222F02F
:1022FC0070021204120C42F4404242F0800220F8A8
:10230C00232030F8232022F4E04222F04002120471
:10231C00120C0A4320F8232030F8232022F48042A8
:10232C0022F07002B5E74B780A788BB130F8223086
:10233C0023F4E04323F040031B041B0C83F0100335
:10234C0043F4004343F0800320F822300020704710
:10235C0030F8223023F4804323F070031B041B0C51
:10236C0083F48053ECE70B7B3BBB4B780A7833B39D
:10237C0030F822305B060DD530F8223023F4E043E0
:10238C0023F070031B041B0C43F4004343F0C00305
:10239C0020F82230CB78012B0FD030F8223023F4E8
:1023AC00E04323F040031B041B0C83F0200343F495
:1023BC00004343F0800320F822300020704730F8AF
:1023CC0022305B040DD530F8223023F4E04323F0A7
:1023DC0070031B041B0C43F4404343F0800320F8B0
:1023EC00223030F8223023F4804323F070031B0496
:1023FC001B0C83F44053DAE711B98023A0F84C305E
:10240C00002070470020704700207047B0F844004F
:10241C0080B270470020704700EB4202013302F596
:10242C0080625B0802EB83039A4200D1704731F85B
:10243C00020B22F8040BF7E7F8B50C464978054671
:10244C000129227B40F08E81D4F810E0A6696169E5
:10245C00764528BF764602BBB6B2E2883346FFF714
:10246C00DBFFB5F85020217890B205F20442090147
:10247C0002448E52227835F8223023F4E04323F0C4
:10248C0040031B041B0C83F03003002043F4004377
:10249C0043F0800325F82230F8BDE2782778022A31
:1024AC00236A30F827204FEA071C40F0BB809E457A
:1024BC0080F09F8022F4E04222F070021204120C91
:1024CC0042F4014242F0800220F8272030F82770B5
:1024DC009B1B17F040072362B0F85020B3B244D0D6
:1024EC0097B200F20C423A4422F80C306289FFF7A2
:1024FC0093FF226A236961699A428ABF931B002366
:10250C003246607831442362616193B2002840F016
:10251C00D780B5F85000267880B205F20447360112
:10252C0038446AB9325A22F4F8421204120C32526C
:10253C00325A6FEA42426FEA524292B2325208E089
:10254C003E2A09D85708D20748BF0137BF02BFB28D
:10255C0037522289284662E05709D206914A08BFB1
:10256C0007F1FF3742EA8722E7E71FFA82FE00F203
:10257C000442724422F80C302289FFF74DFF226A84
:10258C00236961699A4284BF971B32466078314453
:10259C006161276293B2002840F0D780B5F85000F3
:1025AC00267880B205F20C47360138446AB9325AA3
:1025BC0022F4F8421204120C3252325A6FEA42429E
:1025CC006FEA524292B2325208E03E2A08D85708BB
:1025DC00D20748BF0137BF02BFB237526289B9E791
:1025EC005709D2066F4A08BF07F1FF3742EA872224
:1025FC00E8E722F4E24222F070021204120C42F4D8
:10260C00004242F0800220F82720B0F850209BB204
:10261C0096B200F20442324422F80C302289FFF7C1
:10262C00FBFE27E722F4E04222F070021204120CA7
:10263C0042F4014242F0800220F8272030F8277043
:10264C009B1B17F040072362B0F85020B3B244D064
:10265C0097B200F20C423A4422F80C306289FFF730
:10266C00DBFE226A236961699A428ABF931B0023AD
:10267C003246314461612362002A3FF4FBAE60783C
:10268C0093B2E8B9B5F850602778B0B23E2A05F29B
:10269C0004464FEA0717064407D85008D20748BF2C
:1026AC000130800280B2B85353E75009D2063D4A3C
:1026BC0008BF00F1FF3042EA802292B2BA5348E7D9
:1026CC0001287FF446AFB5F85020207896B205F279
:1026DC0004420001324483523BE71FFA82FE00F2AF
:1026EC000442724422F80C302289FFF795FE226ACC
:1026FC00236961699A4284BF971B324631446161F8
:10270C002762002A3FF4B6AE607893B2E8B9B5F808
:10271C0050602778B0B23E2A05F20C464FEA0717F4
:10272C00064407D85008D20748BF0130800280B257
:10273C00B85353E75009D2061A4A08BF00F1FF30CC
:10274C0042EA802292B2BA5348E701287FF446AF9E
:10275C00B5F85020207896B205F20C4200013244B4
:10276C0083523BE702BBA36921698B4288BF5A1A8B
:10277C00A261B0F8502088BF0B46217892B200F2CB
:10278C000C4009010244002B00F0C8803E2B00F2E3
:10279C00D3805808DE0748BF0130800280B2505207
:1027AC004BE000BF0080FFFFE378022B79D151BBD7
:1027BC00B0F85020217893B200F204421A442369F5
:1027CC000901002B45D1885A20F4F8400004000C74
:1027DC008852885A6FEA40406FEA504080B2885263
:1027EC00B5F85010227889B205F20C401201014460
:1027FC00002B3FD03E2B4BD85808DB0748BF01308D
:10280C00800280B25052E369BBB144F2400322789B
:10281C0035F8221003EA01008B4300D068B935F873
:10282C00223023F4E04323F070031B041B0C43F40D
:10283C00004343F0C00325F82230227835F82230CB
:10284C0023F4804323F070031B041B0C83F44053CC
:10285C001BE63E2B05D85808DE0748BF0130800226
:10286C00BCE75E09D8063A4808BF06F1FF3640EAD5
:10287C008620B3E7535A23F4F8431B041B0C535222
:10288C00535A6FEA43436FEA53439BB25352BAE72E
:10289C005809DF062E4B08BF00F1FF3043EA8023B6
:1028AC00F3E7012B51D1A3692269934294BF002015
:1028BC00981AA06188BF13460029BED1B5F85020E4
:1028CC00217892B205F2044009010244ABB9885A4E
:1028DC0020F4F8400004000C8852885A6FEA4040FB
:1028EC006FEA504080B28852B5F85010227889B205
:1028FC0005F20C401201014445E73E2B05D858085F
:10290C00DE0748BF01308002ECE75E091048DF06A5
:10291C0008BF06F1FF3640EA8620E3E7535A23F45A
:10292C00F8431B041B0C5352535A6FEA43436FEA90
:10293C0053439BB2535280E75809DB06044B08BF44
:10294C0000F1FF3043EA8023F3E70120A4E500BF48
:10295C000080FFFF00EB4202F0B502F580625D08DB
:10296C000C4617462E46023436B9DB0744BF32F804
:10297C00253001F81530F0BD37F8040B013E80B25C
:10298C0004F8020C000A04F8010CECE7014B186087
:10299C00704700BF64000020164B30B5DC68C4F3F0
:1029AC000224C4F10703251D042B28BF0423062D84
:1029BC004FF0FF3598BF002405FA03F388BF033CA2
:1029CC0021EA0303A34005FA04F422EA04020028D6
:1029DC0043EA0203ACBF00F16040074A4FEA03131D
:1029EC00DBB2ABBF00F5614000F00F0080F80033A4
:1029FC00135430BD00ED00E014ED00E0002808DBBE
:102A0C000123420900F01F0003FA00F0014B43F8C8
:102A1C002200704700E100E0F0B5044687B010B327
:102A2C0090F8A93203F0FF021BB980F8A82202F03B
:102A3C00DDFD032325466E4684F8A93255F8100BAC
:102A4C00FFF743FA0FCD0FC62B68271D33602646C0
:102A5C0097E80E0056F8100BFFF727FA054620B141
:102A6C00022384F8A93201254CE001462068FFF7C7
:102A7C0036FA29464FF0010E28250846D4F804C032
:102A8C00CAB2944501F101011BD80023282519462F
:102A9C00D8B2844503F1010320D8EC4635460FCD5E
:102AAC00ACE80F002B68CCF8003097E80E002068DB
:102ABC00FFF717FA01230546E8B1022284F8A92290
:102ACC00D1E705FB0243C3E90E0083F829E083F844
:102ADC002820DA8683F82B001864D1E705FB004226
:102AEC00C2E95E1182F8691182F8680182F86B11F3
:102AFC00C2F88011CCE784F82400206884F8A9324D
:102B0C00FFF782FC284607B0F0BD38B590F8A83224
:102B1C000446012B10D0012580F8A8520068FFF75D
:102B2C00CBF92946204602F06CFE2068FFF76AFCC0
:102B3C00002084F8A80238BD0220FCE710B590F8FC
:102B4C00A8220446012A0BD0012280F8241080F818
:102B5C00A8220068FFF750FC002084F8A80210BDE2
:102B6C000220FCE72DE9F04F044685B00068FFF722
:102B7C004DFC010409D5DFF80C93DFF80C832068B9
:102B8C00B0F844301D0400F1C1802068FFF73EFC12
:102B9C0042050FD522682046B2F8443023F48063F6
:102BAC001B041B0CA2F8443002F05BFD00212046F4
:102BBC00FFF7C4FF2068FFF729FC410408D5226801
:102BCC00B2F8443023F480431B041B0CA2F84430AD
:102BDC002068FFF71BFC820408D52268B2F8443049
:102BEC0023F400531B041B0CA2F844302068FFF79D
:102BFC000DFCC3041CD522682046B2F8403023F0EB
:102C0C0004031B041B0CA2F84030B2F8403023F034
:102C1C0008031B041B0CA2F8403002F045FD22688F
:102C2C00B2F8443023F480531B041B0CA2F844303C
:102C3C002068FFF7EBFB070546D568462368064678
:102C4C0019461A4603F1200532F8047B954226F802
:102C5C00027BF9D1B3F8402092B242F00102A3F802
:102C6C004020B3F8402022F001021204120CA3F809
:102C7C004020B3F844205605FBD5B3F8442022F489
:102C8C0080621204120CA3F8442030F8022B21F8B5
:102C9C00042B8D42F9D1B3F84020204692B242F079
:102CAC000802A3F84020B3F8442022F40062120476
:102CBC00120CA3F84420B3F8402092B242F0040264
:102CCC00A3F8402002F0E0FC2068FFF79FFB820590
:102CDC000BD522682046B2F8443023F400731B0451
:102CEC001B0CA2F8443002F0B8FC2068FFF78EFBF6
:102CFC00C30508D52268B2F8443023F480731B0452
:102D0C001B0CA2F8443005B0BDE8F08FB0F844605D
:102D1C00B1B216F00F0640F0C18011F010012DD1A8
:102D2C0003889BB203EA090343F400430380B0F821
:102D3C00503094F828209BB203EBC20300EB430005
:102D4C00B0F80434E26BC3F3090363641344E36324
:102D5C00204602F07AFC94F82430002B3FF40FAF9D
:102D6C00226C002A7FF40BAF94F82430216843F0D6
:102D7C008003A1F84C3084F8242000E70588ABB21E
:102D8C0015F4006521D0B0F8503094F868219BB24E
:102D9C0003EBC20300EB4303B3F80C34B4F86E211D
:102DAC00C3F30903C4F8843104F52C71FFF7D2FD89
:102DBC0022682046138823F070031B051B0D43F07B
:102DCC008003138002F032FCD9E61B047FF5D7AEEA
:102DDC00038823F070031B051B0D43F08003038055
:102DEC00B0F8503094F868219BB203EBC20300EBAF
:102DFC004303B3F80C34C3F30903C4F884318BB127
:102E0C00D4F87C1171B1B4F86E21FFF7A3FDD4F89E
:102E1C007C31D4F88421294613442046C4F87C31F3
:102E2C0002F00AFC21680B881F053FF5A8AEB1F82B
:102E3C005030D4F878519BB201F20C40CDB9C25A43
:102E4C0022F4F8421204120CC252C25A92B242F448
:102E5C000042C2520B8823F4804323F070031B04FE
:102E6C001B0C83F4405343F4004343F080030B806A
:102E7C0085E63E2D0AD86A08EE0748BF0132920259
:102E8C0092B2E6E70F8FFFFF0080FFFF6A09ED06A5
:102E9C0008BF02F1FF3248EA8222F1E730F826300F
:102EAC0019049FB240F1EE80282130F8263001FB46
:102EBC00064123F070031B051B0D43F0800320F823
:102ECC00263091F8743100F5806CB3B9B0F85030FD
:102EDC0091F868219BB2063303EBC2033CF8135004
:102EEC00C5F30905002D00F0B1802B46B1F86E2119
:102EFC00D1F87C11FFF72EFDA8E091F86B2191F829
:102F0C006831022A40F08180B0F8505017F4804AA2
:102F1C00D1F880214FEAC30BADB207F0400E3BD085
:102F2C00AB440BF1020B3CF81B50C5F30905954261
:102F3C0013D90022C1F8802130F8232022F48042DA
:102F4C0022F070021204120C82F4005242F400427D
:102F5C0042F0800220F8232004E0521BC1F88021AB
:102F6C00002AE9D0BEF1000F0DD030F8232022F456
:102F7C00E04222F070021204120C42F4004242F0C1
:102F8C00C00220F82320002D60D0282101FB06412F
:102F9C002B46B1F87021ABE75D4406353CF8155073
:102FAC00C5F30905954212D9C1F880A130F8232048
:102FBC0022F4804222F070021204120C82F40052AD
:102FCC0042F4004242F0800220F8232004E0521B1D
:102FDC00C1F88021002AE9D0BEF1000F0DD130F8E4
:102FEC00232022F4E04222F070021204120C42F46C
:102FFC00004242F0C00220F823203DB3282101FBFF
:10300C0006412B46B1F8722172E730F8232022F4E6
:10301C00E04222F070021204120C42F4004242F020
:10302C00C00220F8232091F8683130F82320DB000F
:10303C0012F4804FB0F8502092B256D002321344A2
:10304C003CF81350C5F30905002DA1D1282171437B
:10305C006318D3F884212A44C3F88421D3F87C2143
:10306C002A44C3F87C21D3F880211AB1D3F87831E3
:10307C009D4243D2282303FB0643204693F8681154
:10308C0002F0DAFA3A067FF57AAD2825206805FBBE
:10309C00064530F826309BB203EA090343F400439B
:1030AC0020F8263095F82B3095F82810032B04D0F7
:1030BC001BB1022B3AD1FB0538D42825B0F850307F
:1030CC0005FB06429BB2023303EBC10300EB430347
:1030DC00B3F800C4176CCCF3090C674515D8002362
:1030EC001364204602F0B1FA49E5063213443CF869
:1030FC001350C5F30905002DA8D082E701F5B47172
:10310C0020682144FFF798F9BCE7A7EB0C0717647C
:10311C00002FE6D006FB0555D16B536C614463441C
:10312C00D16353646119FFF787F928E5282303FB62
:10313C000643B0F850C04FEAC10A1FFA8CFC17F0D6
:10314C0040021B6C00F5806ED44407F4804700F0FD
:10315C00E4800CF1020C3EF81CC02822CCF3090CC4
:10316C009C4528BF002302FB064238BFA3EB0C038F
:10317C001364BFB2002B51D195F82920002A3AD103
:10318C00B0F850600B01B2B200F204461644F25A89
:10319C0022F4F8421204120CF252F25A92B242F495
:1031AC000042F252B0F8502000F20C4092B210449F
:1031BC00C25A22F4F8421204120CC252C25A92B2EF
:1031CC0042F40042C252204602F03FFA002F00F0B7
:1031DC00E28095F82810226832F8213023F4E0437D
:1031EC0023F070031B041B0C43F4404343F0800397
:1031FC0022F82130CFE0012AE5D1B0F850600A0165
:10320C001FFA86FC00F204466644B352B0F85060D4
:10321C0000F20C40B6B230448352D4E76FB130F8B0
:10322C00213023F4E04323F070031B041B0C43F404
:10323C00404343F0800320F82130282303FB06434E
:10324C0093F84C20012A40F0A680DA6BD3F848E0C2
:10325C0002EB0C075A6CDF6362445A649A6B964516
:10326C0029D3AEEB020EC3F848E095F829C093B20F
:10327C00BCF1000F44D1B0F850C000F2044E1FFA5C
:10328C008CFCF44409011ABB3CF8012022F4F842EE
:10329C001204120C2CF801203CF8012092B242F4DA
:1032AC0000422CF80120282101FB0646328E3946BB
:1032BC00FFF7B2F86FE0BEF1000F03D1624683F85E
:1032CC004CE0D2E7002283F84C209A647246CCE79B
:1032DC003E2A0CD84FEA520ED20748BF0EF1010E0F
:1032EC004FEA8E2E1FFA8EFE2CF801E0DBE74FEA38
:1032FC00521ED20608BF0EF1FF3E48EA8E2EF1E7B1
:10330C00BCF1010FCFD1B0F8502009011FFA82FC9B
:10331C0000F2044262445352C5E70CF1060C3EF82D
:10332C001CC0BFB2CCF3090C9C4598BFA3EB0C029C
:10333C00282303FB06431A64002A52D195F829303E
:10334C00002B3CD1B0F850600B01B2B200F2044635
:10335C001644F25A22F4F8421204120CF252F25AA7
:10336C0092B242F40042F252B0F8502000F20C40FB
:10337C0092B21044C25A22F4F8421204120CC252F5
:10338C00C25A92B242F40042C252204602F05DF997
:10339C00002F3FF41EAF95F82810226832F8213028
:1033AC009BB223F4E04323F0400383F0300343F457
:1033BC00004343F0800322F82130FFF7E0BB012BE0
:1033CC00E3D1B0F850600B011FFA86FC00F2044602
:1033DC006644F252B0F8506000F20C40B6B2304481
:1033EC00D2E76FB930F8213023F4E04323F07003B7
:1033FC001B041B0C43F4404343F0800320F82130A2
:10340C00282202FB064292F84C30012BC3D1536C9C
:10341C00D76B6344D2F848E05364936B67449E4582
:10342C00D76322D3AEEB030EC2F848E095F82920FF
:10343C001FFA83FC002A3DD1B0F8502000F20C4E4C
:10344C0092B272440901EBB9535A23F4F8431B04AA
:10345C001B0C5352535A9BB243F400435352282132
:10346C0001FB06466346728E21E7BEF1000F03D1C5
:10347C00634682F84CE0D9E70023936482F84C3021
:10348C007346D3E73E2B0CD84FEA530EDB0748BFED
:10349C000EF1010E4FEA8E2E1FFA8EFE22F801E07D
:1034AC00DDE74FEA531EDB0608BF0EF1FF3E48EA8C
:1034BC008E2EF1E7012AD2D1B0F850309AB200F238
:1034CC000C4313440A0123F802C0C8E711F0800F23
:1034DC0070B505464FF0280401F007001CD00126FA
:1034EC0000FB044129444E700A614A780870CB7085
:1034FC0002B1C881022B04BF00230B7195F8A832CE
:10350C00012B12D00123286885F8A832FEF7FEFCA7
:10351C00002085F8A80270BD0026444304F5B47160
:10352C002C44294484F86961DEE70220F3E711F0AA
:10353C00800F10B54FF02803044601F0070213D09A
:10354C0002FB03310144012048700A7094F8A83240
:10355C00012B12D00123206884F8A832FEF712FE4A
:10356C00002084F8A80210BD534303F5B471014444
:10357C000344002083F86901E7E70220F3E770B504
:10358C0001F00705282100266943441801F5B471A0
:10359C000144C4E95F23C4F8846184F8696184F848
:1035AC0068510068FEF748FF304670BD282301F0D3
:1035BC00070103FB0100D0F88401704770B501F0DE
:1035CC000705282101FB05040026C4E90F2301226D
:1035DC0005FB011184F84C200144A364666484F853
:1035EC00292084F828500068FEF726FF304670BD6D
:1035FC0038B5436801F007059D42044628D811F000
:10360C00800F4FF028031AD0012205FB033101442F
:10361C004A7001230D708B7094F8A8229A4219D02D
:10362C00206884F8A832FEF77EFE25B9206804F5E0
:10363C002C71FEF7EFFE002084F8A80238BD0022A2
:10364C004B4303F5B4710344014483F86921E0E76B
:10365C000120F3E70220F1E738B5436801F00F02CF
:10366C009A42044625D811F0800F4FF0280301F040
:10367C00070215D002FB03310144012048700025DC
:10368C000A708D7094F8A832012B14D00123206895
:10369C0084F8A832FEF767FE284684F8A85238BD95
:1036AC00534303F5B47101440344002083F86901CA
:1036BC00E5E70120F3E70220F1E710B5282411F02B
:1036CC00800F1BBF01F0070101FB044104FB01004B
:1036DC00401808BF00F5B47099B21AB90273C180D2
:1036EC00002010BD012283600273F9E778B100233A
:1036FC00C0F8B832C0F8C032C0F8CC3209B1C0F84A
:10370C00B4120123027080F89C3201F0D1BF032067
:10371C00704737B500250446ADF8065059B1CB6A51
:10372C00C0F8B8124BB10DF106009847C4F8CC02A2
:10373C00284603B030BD0320FBE71846F9E701F03B
:10374C00F9BFD0F8B8320BB11B681847032070478B
:10375C0008B5D0F8B8320BB15B689847002008BDAB
:10376C0038B500F2AA250446284600F002FB0123D6
:10377C0094F8AA12C4F89432B4F8B032C4F898325F
:10378C0001F01F03012B08D0022B0CD08BB929465A
:10379C002046BDE8384000F0F1B829462046BDE887
:1037AC00384000F02FBA29462046BDE8384000F0DA
:1037BC004FBA2046BDE8384001F0800101F0D8BF77
:1037CC0070B504461546F9B9D0F89432032B0CD1D8
:1037DC00D0E9573293420AD99B1A9A4228BF1A460B
:1037EC002946C0F85C3100F018FB002070BD90F841
:1037FC009C32032B04D1D0F8B8321B6903B1984723
:10380C00204600F012FBF0E790F89C32032BECD131
:10381C00D0F8B8329B69002BE7D0BDE87040184750
:10382C0070B5044616460D46D9BBD0F89432022B1F
:10383C000ED1D0E90732934213D99A1A3146C2619C
:10384C0000F0D6FA2B462A462946204601F0C6FF40
:10385C0094F8A032012B02D1002384F8A03200206E
:10386C0070BD0CD18269934209D8D0F898329A4233
:10387C0005D20A4600F0BCFAC4F89852E2E794F874
:10388C009C32032B05D1D4F8B832DB680BB120463F
:10389C0098478021204601F06BFF204600F0D0FABB
:1038AC00D6E790F89C32032BD9D1D0F8B8325B69AB
:1038BC00002BD4D0BDE8704018470123002170B50F
:1038CC0080F89C32D0F8B8320446C0F894124160AB
:1038DC00C0F8A412DBB1D0F8BC2212B15B6803B102
:1038EC00984700224025012611464023204601F02E
:1038FC002AFF2B46002280212046A4F86461C4F8DC
:10390C00605101F020FF0020A684256270BD0320C9
:10391C00FCE701740020704790F89C32DBB280F811
:10392C009D32042380F89C320020704790F89C3222
:10393C00042B02BF90F89D32DBB280F89C32002041
:10394C007047D0F8B82208B542B190F89C32032BDE
:10395C0002D1D36923B19847002000E0032008BDB1
:10396C001846FCE710B50446802101F001FF204603
:10397C00BDE81040002101F0FBBE0000F7B50D784A
:10398C00044605F06005202D0E4614D0402D12D0B3
:10399C00002D40F000814F78092F00F2FC80DFE809
:1039AC0017F001012301FA001901FA00820013003B
:1039BC00FA00E9009E0031462046D4F8B8329B68E4
:1039CC0003B0BDE8F04018470023ADF806304B8833
:1039DC001A0A013A062A37D8DFE802F0041C293605
:1039EC0036505A00D0F8B4321B68207C0DF1060119
:1039FC009847F288002A00F0F380BDF806301BB31C
:103A0C009A4228BF1A460146ADF80620204600F01F
:103A1C00E2F91CE0027CD0F8B83232B99B6A0DF1A5
:103A2C000600984702234370E3E7DB6AF7E7DBB253
:103A3C00052B09D8DFE803F0030E12161A1ED0F876
:103A4C00B4325B68002BD0D12046FFF78BFF2846A1
:103A5C0003B0F0BDD0F8B4329B68F3E7D0F8B432C1
:103A6C00DB68EFE7D0F8B4321B69EBE7D0F8B4327F
:103A7C005B69E7E7D0F8B4329B69E3E7037C002B82
:103A8C00E2D1D0F8B8320DF106005B6B9847B0E785
:103A9C00037C002BD8D1D0F8B8320DF106001B6B8B
:103AAC0098470723BFE78B88002BCDD1CB88002B01
:103ABC00CAD14E887F2EC7D890F89C32032BC3D026
:103ACC00F1B280F89E1201F077FE204600F0ADF9BD
:103ADC001EB1022384F89C32B9E70123FAE78E78F1
:103AEC00474F012E3E7003D9FFF73CFF0325AEE78D
:103AFC0090F89C32022BDAB208D0032A14D0FFF7CC
:103B0C0031FF20463978FFF723FEEFE7002E67D010
:103B1C0001214160FFF715FE05462046002D94D18A
:103B2C0000F083F90323D5E75EB90223314680F810
:103B3C009C324660FFF70CFE204600F076F93546C5
:103B4C0085E7416801294BD0C9B2FFF701FE3978EE
:103B5C0020466160FFF7F5FD0646002840D0204660
:103B6C00FFF700FF20462179FFF7F2FD022384F8CE
:103B7C009C32E4E7CA88012A7FF466AF90F89C1265
:103B8C000229CBB205D833B10146002341F8083FD6
:103B9C003CE7032B04D02046FFF7E4FE002556E754
:103BAC00011D33E790F89C32013B022BF3D8CB88F4
:103BBC00022B7FF449AF0123C360D0F8A4320BB1C0
:103BCC000323C3600222204604F10C0100F003F928
:103BDC003D463CE74B88012B7FF439AFC4F8A43247
:103BEC00204600F022F932E790F89C32013B022B80
:103BFC00D1D84B88012B7FF42AAF0023EEE700BF0E
:103C0C000C02002070B50B78044603F06002402AC9
:103C1C000E4601D05B0616D494F89C32013B022B65
:103C2C0011D83379012B0ED8D4F8B83231469B68B1
:103C3C0020469847F38805461BB910B9204600F07A
:103C4C00F4F8284670BD2046FFF78CFE0025F8E7F7
:103C5C0070B50B78044603F06003202B0D4652D050
:103C6C00402B50D06BBB6B788A88012B097939D0EB
:103C7C00032B1FD02BBB90F89C32022BD8B253D005
:103C8C0003281ED112F0800F4FF0140201F00F0325
:103C9C0002FB034359D09B8C9BB1142301F07F058D
:103CAC0005FB0333E51811F07F035AD12B60022278
:103CBC00294646E090F89C32022BDAB22BD0032A2C
:103CCC0003D02046FFF74EFE0AE06B882BB94A065C
:103CDC0003D0EB880BB901F04BFD204600F0A5F8A2
:103CEC00002070BD90F89C32022BDAB213D0032A5C
:103CFC00E7D16B88002BF3D14E0601D001F041FDCA
:103D0C00204600F092F8D4F8B83229462046BDE897
:103D1C0070409B6818474B06D3D001F029FD8021D9
:103D2C00204601F025FDDBE74906CAD113064FF00A
:103D3C0000034FF002024CBF04F1140104F5AA7108
:103D4C000B60204600F047F8CAE7B3F86431002B4B
:103D5C00B7D0142301F07F0503FB054505F5AA75C3
:103D6C00A1E7204601F016FD08B101239EE728606B
:103D7C009DE70B7803704B7843704B8843808B889E
:103D8C008380CB88C380704710B50446802101F036
:103D9C00EFFC2046BDE81040002101F0E9BC30B535
:103DAC0088B10024013823460134055D002DFAD179
:103DBC00DBB201335B0013800B7003234B700223C7
:103DCC0010F8012F02B930BDCA545A1CD2B20233BA
:103DDC008D54DBB2F4E71346022210B5C0E906336A
:103DEC00C0F894220A46002101F0EFFC002010BD1F
:103DFC0008B513460A46002101F0E7FC002008BD77
:103E0C001346032210B5C0E95633C0F894220A4673
:103E1C00002101F0E3FC002010BD08B513460A4652
:103E2C00002101F0DBFC002008BD08B504220023B2
:103E3C00C0F8942219461A4601F0C7FC002008BDB0
:103E4C0008B505220023C0F8942219461A4601F041
:103E5C00C5FC002008BD10B5D0F8BC4284B1D0F828
:103E6C00C0325BB194F80002FF2807D09B68214652
:103E7C0094F801229847FF2384F80032002000E0D8
:103E8C00032010BD4323038000487047A00000208E
:103E9C004323038000487047E40000204323038041
:103EAC0000487047340100200A2303800048704703
:103EBC002801002038B5D0F8BC4205466CB101F0A1
:103ECC0096FCD5F8C032C4F80C02DB68D4F80402B6
:103EDC0004F503719847002038BD0320FCE7F8B5C2
:103EEC00D0F8BC6205460A4636B3142303FB010323
:103EFC009C6994B14FF0280CD0F8C4720CFB01777C
:103F0C00BF6BB4FBF7FC07FB1C4434B99C61224625
:103F1C00234601F05AFC20460DE00027D5F8C032AC
:103F2C00C6F814721C69002CF5D0D6F8080206F5F8
:103F3C000471A0473846F8BD0320FCE72DE9F74390
:103F4C004FF00008D0F8BC7205460E468DF805807F
:103F5C00ADF80680002F6AD00A7812F060042BD0DE
:103F6C00202C60D1CC884B78FCB1120614D5D0F83B
:103F7C00C0223946D2F8089018462246C847F28823
:103F8C003946072A28BF07222846FFF724FF444654
:103F9C00204603B0BDE8F0832246394687F800324C
:103FAC0087F80142FFF72CFFF1E7D0F8C022184642
:103FBC0095682246A847EBE74F780B2F33D801A31F
:103FCC0053F827F0014000089D3F000833400008DB
:103FDC0033400008334000083340000833400008E9
:103FEC0033400008334000083340000817400008F5
:103FFC002B40000890F89C32032B14D102220DF1B7
:10400C000601FFF7E8FE3C46C2E790F89C32032B12
:10401C0009D101220DF10501FFF7DDFEB8E790F89B
:10402C009C32032BB4D031462846FFF7ADFE032457
:10403C00AEE700BF38B504460025812101F08FFBA7
:10404C0001212046258701F08AFB82212046A4F815
:10405C00785101F084FBD4F8BC32E5644BB1D4F850
:10406C00C0325B689847D4F8BC0201F0C9FBC4F8B5
:10407C00BC52002038BD2DE9F04104464FF40770C6
:10408C0001F0BAFB0546C4F8BC0218B9022630464A
:10409C00BDE8F081237C93BB4FF400730222812195
:1040AC002046012601F04FFB4FF400732687314662
:1040BC000222204601F047FB10234FF00108002795
:1040CC0003228221A4F87861A4F84E3020460823FC
:1040DC0001F039FBD4F8C032A4F84C801B68984727
:1040EC00C5F81472C5F81872267C96B94FF4007393
:1040FC0041462046D5F8042201F070FBC7E70126A3
:10410C00402302228121204601F01DFB40232687FB
:10411C00CDE7402341462046D5F8042201F05EFB52
:10412C003E46B4E719B1C0F8C01200207047032016
:10413C007047D0F8BC322BB10020C3F80812C3F87A
:10414C001022704703207047D0F8BC321BB10020FE
:10415C00C3F80412704703207047D0F8BC2210B586
:10416C007AB1D2F8144201236CB9C2F81432D2F8E5
:10417C0010328121D2F80822C36201F026FB2046BE
:10418C0010BD0320FCE71846FAE7D0F8BC2210B5A6
:10419C0082B1047CD2F8042234B94FF400730121AB
:1041AC0001F01CFB204610BD4023012101F016FB41
:1041BC000024F7E70324F5E74FF40072014B1A6172
:1041CC00704700BF000801404FF40072014B5A6168
:1041DC00704700BF00080140F0B503780446782B07
:1041EC00ADF20C4D01D05C2B4ED1012701340122D4
:1041FC0021460DF1070001F031F9012846D10025C7
:10420C0002AEA31C1C4613F8012B202AFAD09DF8F1
:10421C000730B5F5FF7F73554FF0010221460DF1C4
:10422C000700D8BF013501F019F90128E9D04FF486
:10423C000072174B5A612FB9012001F0B1F801221D
:10424C00144B1A702A46314682A801F073F8237871
:10425C00782B07D05C2B05D0002001F0A1F80022B0
:10426C000C4B1A7000260C4F82AC384614F8011B0C
:10427C000136FCF721FBB542F7D10848FCF7CAFB25
:10428C0001200DF20C4DF0BD0027B0E70020F8E73F
:10429C00000801400D020020C8590008E25A00082D
:1042AC0010B5044623780130202BFAD02046FFF7B6
:1042BC0093FF10B9204600F073FBBDE81040024B91
:1042CC001B689868FCF70EB800000020F0B5ADF53F
:1042DC00017D01F049F8012001F062F801231E4F25
:1042EC003B701E4B187801F047F8002001F044F8A1
:1042FC001B4B8DF800001B7883424FF0000006D159
:10430C0001F04EF800233B700DF5017DF0BD01F07E
:10431C0033F802258DF80100C41CAC424FF00000AC
:10432C0014DA00266D4601F03BF83E700D4F38460E
:10433C0015F8011B0136FCF7BFFAB442F7DA0A484C
:10434C000DF5017DBDE8F040FCF764BB01F014F8FD
:10435C000DF805000135E0E70D02002025020020D4
:10436C0026020020C8590008E25A000808B572B6A7
:10437C004FF40075044C6420256100F001FE6420AC
:10438C00656100F0FDFDF6E700080140824D2DE966
:10439C00884800F067FE00F08FFE00F029FD012236
:1043AC000921284600F002FD4FF400732B614FF4F5
:1043BC0080737A4C6B6101220821284600F0F6FCD0
:1043CC0020460822002100F0F1FC204608220121A1
:1043DC0000F0ECFC20460822022100F0E7FC20460D
:1043EC000822032100F0E2FC20460822042100F000
:1043FC00DDFC08226A4E1146204600F0D7FCE3682B
:10440C00326A204623EA1223E3600822092100F0D5
:10441C00CDFC204608220A2100F0C8FC20460822C8
:10442C000B2100F0C3FC01220021284600F0BEFC49
:10443C0001232B61336893FAA3F1B1FA81F10F24B4
:10444C001A0E02F1804202F584321068890004FAD7
:10445C0001F193FAA3F3B3FA83F320EA01000121EB
:10446C009B0001FA03F30343136000F07FFE00F09E
:10447C007FFE00F003FD4B4C207000F055FD0A2030
:10448C0000F07EFD484800F091FB0A2000F078FD1A
:10449C00464800F059FB464800F056FB4FF40073B9
:1044AC0044486B6100F050FB434800F04DFB23780F
:1044BC00032B65D8DFE803F0025E60623F4800F032
:1044CC0043FB3F4C394800F03FFB384800F03CFBC5
:1044DC0000F0ECFC204600F075FB3A4B2046A36044
:1044EC00394B04220121E360002300F072FB00F041
:1044FC00D3FF00F0B9FE00F03DFD04460E468046A9
:10450C008B4600F037FD8246894600F00FFB544580
:10451C0076EB090323D200F0F7FF2C4B07461B78F0
:10452C0083420BD070B3002304220F21244800F0E7
:10453C0050FB4FF480732B61244B1F70244B20488D
:10454C00E41846F1000600F057FB00F049FE214B41
:10455C001B7823B1204B1B780BB9FFF7B7FED04566
:10456C007BEB090304D21D4B18EB03084BF1000B3A
:10457C0030BFC6E71A48A2E71A48A0E71A489EE7D8
:10458C001A489CE70346042201210D4800F021FB48
:10459C004FF480736B61CFE700080140000C0140C1
:1045AC00545D000828020020AD420008505D000850
:1045BC00CD590008D9590008F5590008045A0008CB
:1045CC0010020020C5410008D54100082702002038
:1045DC00A0860100240200200D0200208096980085
:1045EC000D5A0008155A0008195A00081D5A0008DF
:1045FC0003681A78202A00D0704701330360F7E76C
:10460C0008B501680448FCF757F9044A0449054801
:10461C00FCF752F9012008BD255A00082A5A000857
:10462C00315A0008375A000808B501680448FCF7ED
:10463C0043F9044B04481978FCF73EF9012008BDF6
:10464C00255A000877010020675A000808B5016850
:10465C000348FCF731F90348FCF7DCF9012008BDED
:10466C00255A00086C5A000838B50D48FCF7D2F9E9
:10467C000C48FCF7CFF90C48FCF7CCF90B4C0C4D63
:10468C00216851B1E26832B1137823B10B7823B1B0
:10469C002846FCF711F91034F2E7012038BD00BFB1
:1046AC00885A0008A85A0008E45A0008885C0008D8
:1046BC00F95A000808B501680548FCF7FDF8054BE8
:1046CC000548996801F00101FCF7F6F8012008BDD6
:1046DC00255A0008000C0140675A000801460148A1
:1046EC00FCF7EAB8035B000838B501680948FCF729
:1046FC00E3F80224084D605DA0F130034A2B04D886
:10470C000234FCF705F91A2CF5D10448FCF782F9B0
:10471C00012038BD255A0008C4010020E25A0008C7
:10472C0008B50648FCF776F90A2000F029FC4FF48E
:10473C00807000F033FD012008BD00BF0F5B000846
:10474C0008B501680548FCF7B7F800F023FE0146F0
:10475C000348FCF7B1F8012008BD00BF255A00083A
:10476C00165B000808B501680548FCF7A5F800F0D1
:10477C0043FD01460348FCF79FF8012008BD00BF2C
:10478C00255A00081B5B000808B501680948FCF7AE
:10479C0093F8094B1B7843B1084B09481A78094B1D
:1047AC001978FCF789F8012008BD0748FCF732F9A5
:1047BC00F9E700BF255A0008240200202602002039
:1047CC00215B000825020020315B000890FAA0F262
:1047DC00B2FA82F230B5030E0F2590FAA0F0B0FABF
:1047EC0080F003F1804303F584331C68920005FAD2
:1047FC0002F2800024EA020401FA00F0204318605F
:10480C0030BD000038B50B681A78302A06D0312A32
:10481C0016D01048FFF762FF002038BD002401338A
:10482C000B600D4B0D4D186864B101212961FFF728
:10483C00CDFF4FF480732B61094B01201C70ECE70A
:10484C000124ECE70421FFF7C1FF4FF480736B6187
:10485C00F2E700BF345B0008545D0008000801401B
:10486C0077010020AA2337B58DF80630FF238DF889
:10487C0007300B680C461A78302A37D0312A37D1DA
:10488C000125013323602046FFF7B2FE21680B7827
:10489C002C2B0BD10131012221600DF1060000F00F
:1048AC00DDFD012824D12368023323602046FFF765
:1048BC009FFE21680B782C2B0BD10131012221603A
:1048CC000DF1070000F0CAFD012811D12368023355
:1048DC0023600120094B9DF806201D70084B1A70AF
:1048EC009DF80720074B1A7003B030BD0025C8E7B0
:1048FC000548FFF7F3FE0020F6E700BF2402002076
:10490C002502002026020020345B000808B50B6845
:10491C001A78302A06D0312A0BD00748FFF7DEFE72
:10492C00002008BD002001330B6000F039FD012090
:10493C00F7E70120F7E700BF345B0008F0B50D780E
:10494C0002462D2D08BF01310B78303B092B11D8B5
:10495C0000230A270C780846303CE6B2092E01F1F8
:10496C00010104D92D2D08BF5B421360F0BD07FB7C
:10497C000343EFE70020F9E713B50C4601A80968DB
:10498C00FFF7DCFF20B12060019800F041FC18B962
:10499C000248FFF7A3FE002002B010BD345B0008F4
:1049AC002DE9F34101900378232B3BD00026DFF84F
:1049BC009880B4B2230158F8037008EB0414002F4C
:1049CC003FD03846FCF788F883B20546002B38D028
:1049DC00C2B23946019800F009FDA8B9019BADB2ED
:1049EC00585D00F029FD78B90198054401A801959E
:1049FC00FFF7FEFD019B1A783D2A16D1A2682AB951
:104A0C001248FFF76BFE0DE00136D2E7013301933C
:104A1C0001A9FFF7EDFD2046A368984710B10C489B
:104A2C00FBF7F8FF02B0BDE8F0813F2A02D00AB1D3
:104A3C000848E6E763680BB90748E2E72046984761
:104A4C00ECE70648DDE700BF885C0008345B000833
:104A5C006A5B0008465B0008585B00086E5B000848
:104A6C0070B504460D4600F04FFDA8B970BD013E6F
:104A7C00FCD000F085FA2946204600F08DFD012877
:104A8C00F5D00A2400F09EFD0028EFD0013CEDD0BB
:104A9C00012000F075FAF5E76426ECE710B5144632
:104AAC00084691B2FFF7DCFF601C10BD0020704778
:104ABC00084A094913680968994208D00133B3F5CB
:104ACC00805F28BF00231360044AD05C70474FF00E
:104ADC00FF307047301200203412002030020020CA
:104AEC000D2910B504460CD00A2908BF0021D4F8B2
:104AFC0000340829E15406D113B1013BC4F8003449
:104B0C0010BD0021F3E741B9002BF9D0064B1B680F
:104B1C000BB1204698470023F0E740F2FE32934257
:104B2C00EED80133EAE700BF2C02002010B5054C8B
:104B3C00FFF7BEFF011E00DA10BD2046C9B2FFF719
:104B4C00CFFFF5E73812002010B50446FBF7C4FF81
:104B5C0081B22046FFF784FF013C14F8013F002B83
:104B6C00FBD110BD70B40D4A0D4C136824680D4D6B
:104B7C000144884202D1136070BC70470133B3F515
:104B8C00805F28BF00239C4203D1074870BCFFF70D
:104B9C00DBBF10F8016BEE54EBE700BF34120020C2
:104BAC003012002030020020385D000808B5034B9D
:104BBC001860034800F0EAFC012008BD2C0200201C
:104BCC00714B000808B514220021FBF74BFD0120A6
:104BDC0008BD10B544688C420DD014B1447C9C4285
:104BEC0009D8013AD2B21F2A28BF1F2243740023CE
:104BFC0082744160037410BD036810B5DB074CBFB1
:104C0C008368C368044603B1984723685B08236034
:104C1C00237C13B1013B237410BDA37C2374636804
:104C2C002360F9E70120064B82B05A6942F0010279
:104C3C005A615B6903F001030193019B02B0704759
:104C4C000010024080220021054B0C20D961DA6152
:104C5C00DA6942F00202DA61024A5A6200F0DAB80A
:104C6C00000002400C30014090220021054B0D2029
:104C7C0019631A631A6B42F002021A63024A9A63AE
:104C8C0000F0C8B8000002400C3001400022074B75
:104C9C001A70074B5A6842F0F0025A609862196217
:104CAC00DA6942F00102DA61704700BF3C1600205D
:104CBC00000002400022074B1A70074B5A6842F45E
:104CCC0070625A60D86359631A6B42F001021A631E
:104CDC00704700BF3D16002000000240014B1878C1
:104CEC00704700BF3C160020124B1968DA69480661
:104CFC0005D5500742BF586840F0400058608B06FD
:104D0C000DD590070BD50B4BD86920F00100D8615D
:104D1C00586840F0200058600120074B18700906B5
:104D2C0006D5130741BF034A536843F08003536011
:104D3C00704700BF000002403C160020124B19685F
:104D4C001A6B480505D5500742BF586840F480607F
:104D5C0058608B050DD590070BD50B4B186B20F0BD
:104D6C0001001863586840F4007058600120074B2C
:104D7C001870090506D5130741BF034A536843F45D
:104D8C0000635360704700BF000002403D160020D6
:104D9C00054B82B09A6902439A619B691840019055
:104DAC00019B02B0704700BF0010024070B50D4669
:104DBC0086B0064614460021142201A8FBF752FCCB
:104DCC000F2D10D8094B082C53F8253001934FF0B8
:104DDC000203039305D1304601A90294FCF7B1FFFD
:104DEC0001E0012CF7D006B070BD00BF545D000887
:104DFC0008B50420FFF7CCFF0820FFF7C9FF1020EF
:104E0C00FFF7C6FF2020FFF7C3FFBDE80840402096
:104E1C00FFF7BEBF164B30B5DB68C4B2C3F3022339
:104E2C00C3F107051A1D042D28BF0425062A88BFC7
:104E3C00DA1E4FF0FF3398BF0022AB4021EA030388
:104E4C0093401B010028DBB20CDB0A4A111881F8D5
:104E5C000033012304F01F04400903FA04F442F860
:104E6C00204030BD044A04F00F041355F9E700BF8D
:104E7C0000ED00E000E100E014ED00E0094A0A4B0F
:104E8C005B6A91684BF29802914207D013F0C04FC5
:104E9C0006D1002BACBF00200320704701207047C7
:104EAC0002207047006C004000100240064B5A6A0A
:104EBC0042F080725A62DA6942F00062DA610022D2
:104ECC00A3F5D2339A607047001002404FF0804235
:104EDC00536A30B5632B04D81269D20748BF03F567
:104EEC007A734FF47A72054C20686568A0FB020156
:104EFC0002FB0511C01841F1000130BD4016002025
:104F0C004FF080431A69D2070BD51A6922F00102BF
:104F1C001A61044AD2E90031013341F10001C2E9BE
:104F2C000031704740160020104B0121DA69002037
:104F3C0042F00102DA611A6942F001021A611A693F
:104F4C0022F001021A614FF080434FF47A72DA6258
:104F5C0047229A621960DA680A43DA60044A82F8D6
:104F6C001C034FF0805010605961704700100240D4
:104F7C0000E100E008B572B6FFF7A8FF62B608BD05
:104F8C0070B54FF47A754543FFF7F4FF04460E46AF
:104F9C00FFF7F0FF031B61EB0602AB4272F100035B
:104FAC00F6D370BD094B0A491A68895C1A6801323C
:104FBC00B2F5806F1A6024BF00221A60054A13688C
:104FCC0001331360044B5960704700BF581C00201C
:104FDC0054180020541C002000440040194B10B5FC
:104FEC00186801060FD5DA6812060CD5164A116836
:104FFC00164A1268914222D1DA6822F08002DA60F5
:10500C000022134B1A60830618D50E4B1149124A15
:10501C005C6812680B689B1AB3F5007F0ED20F4BBD
:10502C000F481A6884541A680132B2F5007F1A606E
:10503C0024BF00221A600B6801330B6010BDFFF710
:10504C00B1FFE0E700440040601C0020541C00202D
:10505C005C1C00204C180020481800205018002020
:10506C00481600200F4A1048136843F010031360D1
:10507C000E4BDA6942F08052DA61C1680C4A21F4B5
:10508C00E0610904090C0A43C2609A6942F001020A
:10509C009A61084A536823F0E06343F0007353604D
:1050AC00704700BF0020024000ED00E000100240FD
:1050BC000003FA0500000140244A10B5136823F0E0
:1050CC00070343F002031360136803F00703022B7A
:1050DC00FAD11F4C236843F48033236023689A036E
:1050EC00FCD563681B4A23F47C1343F4E813636018
:1050FC00236843F080732360136843F48073136058
:10510C0023689B01FCD5636823F0F003636063683C
:10511C0023F4E06343F480636360636823F46053B7
:10512C006360636823F0030343F002036360636806
:10513C0003F00C03082BFAD10748FDF727FC636832
:10514C0023F4404343F40043636010BD002002404D
:10515C00001002400070004000A24A04024A53684A
:10516C0023F4800353607047001002407047000026
:10517C004CF6CC42084B1A6045F255521A60062286
:10518C005A604FF496729A60DA68002AFCD14AF69B
:10519C00AA221A60704700BF003000400E4B0F4926
:1051AC00DA6942F00062DA614BF298028A60DA69DD
:1051BC0042F00062DA6145F25552A3F5F0334860D3
:1051CC001A6001225A609A60DA68002AFCD14AF609
:1051DC00AA221A60FEE700BF00100240006C0040DB
:1051EC00034B1B781BB14AF6AA22024B1A6070477C
:1051FC007801002000300040034B044A1B6803F088
:10520C00380332F81300704700300140945D0008F9
:10521C00202815D00CD808281AD005D8022819D067
:10522C00042819D0002070471028FBD1182007E063
:10523C00802813D0B0F5807F12D04028F2D12820DE
:10524C00084A136823F03803184310600120704794
:10525C001020F5E70020F3E70820F1E73020EFE716
:10526C003820EDE70030014030B52F4C91B02822AA
:10527C00002106A8FBF7F6F9A3692C4D43F48053E3
:10528C00A361FFF7CFFC1422002101A8FBF7EAF978
:10529C00A369012243F00403A361A369042103F071
:1052AC00040328460093009BFFF780FD10234AF26D
:1052BC00A0022B6109230024CDE90123032301A9BA
:1052CC002846CDE903340594FCF73BFD44F240013C
:1052DC000823CDE90113012301A928460593FCF706
:1052EC0030FD4FF482734FF40070CDE9073418236E
:1052FC00CDE90B030723CDE90944CDE90D44069410
:10530C000B4C06A920460F93FCF79FFDFFF79AFC68
:10531C00FFF7AAFC236843F040032360A3689B07B4
:10532C00FCD511B030BD00BF001002400008014098
:10533C000030014070B50E4615460A4C11466368A4
:10534C0043F003036360FFF7A1FC29463046FFF7E7
:10535C00B1FCFFF7C3FC0028FBD0636823F0030308
:10536C00636070BD00300140024B9A68D20748BFA1
:10537C00DB68704700300140054B9A689107FCD5FB
:10538C0018739A68D207FCD5D868C0B2704700BFB2
:10539C0000300140014B1878704700BF641C00209E
:1053AC001021054A054B18B1516101221A70704742
:1053BC0011611870704700BF00080140641C002088
:1053CC0003463038C2B2092A0FD9A3F16102052A6B
:1053DC0002D8A3F157007047A3F14102052A02D865
:1053EC00A3F1370070474FF0FF30704730B50139EB
:1053FC00441E0AB9104618E014F8010F11F8013FC9
:10540C00984203D188B1013AD2B2F2E7A0F141053A
:10541C00192D04D800F12005EDB2AB42F3D0A3F165
:10542C004105192D02D9C01AC0B230BD03F12005B7
:10543C00EDB2A842F7D1E6E720F02003413B192B4F
:10544C000AD9A0F13003092B06D92A2804D0A0F1DF
:10545C00230358425841704701207047F8B5054660
:10546C00164600270231B74201DB3846F8BD11F869
:10547C00020CFFF7A5FF041EF7DB11F8010CFFF778
:10548C009FFF24010028E4B201F10201EDDB04438B
:10549C00EC550137E7E7000008B54FF48053154889
:1054AC0001220C214361FFF781FC0520FFF768FD09
:1054BC00FFF754FE002210491048FEF717F908B107
:1054CC00FEF754FF0E490D48FEF723F908B1FEF71D
:1054DC004DFF0C490948FEF725FE08B1FEF746FFC3
:1054EC000648FEF72CF918B1BDE80840FEF73EBFA0
:1054FC0008BD00BF0008014090010020681C00207E
:10550C00680000207C010020064B93F89C22032AA3
:10551C0005D1D3F8BC02003818BF01207047002019
:10552C00704700BF681C00200148FDF71BBB00BF83
:10553C000C2700200020704700207047074B10B547
:10554C001B6804460BB10968984721460448FEF7CE
:10555C00FBFD0348FEF719FE002010BD08270020B4
:10556C00681C002010B5064C002220460549FEF7A9
:10557C00E0FD20460449FEF7E7FD002010BD00BF0A
:10558C00681C002020230020381F0020014B1860CD
:10559C00002070470827002010B5094C0A46D4F8A3
:1055AC00BC32D3F8143243B901462046FEF7C1FD94
:1055BC002046BDE81040FEF7D0BD012010BD00BF55
:1055CC00681C0020044BD3F8BC32D3F8140200380A
:1055DC0018BF0120704700BF681C002003289ABF29
:1055EC00014B185C03207047065E000807B50E4B94
:1055FC0002689A4215D103F5DA33DA69142042F4C1
:10560C000002DA610022DB69114603F40003019306
:10561C00019BFDF7C1F9142003B05DF804EBFDF715
:10562C00EDB903B05DF804FB005C004000F52C7193
:10563C00D0F8E802FEF794B8282303FB0103D0F856
:10564C00E802D3F87C21FEF7BBB8282303FB010347
:10565C00D0F8E802DA6BFEF7E3B8D0F8E802FEF710
:10566C0070B9836810B5022B044601D0FEF77EFE9C
:10567C00D4F8E8020121FEF74CF9D4F8E802BDE8B1
:10568C001040FEF71AB9000010B50446D0F8E80235
:10569C00FEF742F9A36923B1024A136943F00603EA
:1056AC00136110BD00ED00E0D0F8E802FEF73EB942
:1056BC00082310B51D4A04461D48C0E900230223E7
:1056CC0083600023C0F8E842C4F8C402C0E9063382
:1056DC000362FDF7A1F908B1FEF748FE002218237A
:1056EC001146D4F8C402FDF7E8FF582300228021AC
:1056FC00D4F8C402FDF7E1FFC02300228121D4F8C5
:10570C00C402FDF7DAFF4FF4887300220121D4F8AC
:10571C00C402FDF7D2FF4FF4807300228221D4F82B
:10572C00C402FDF7CAFF002010BD00BF005C0040A2
:10573C000C27002008B5D0F8C402FDF7E6F9BDE847
:10574C000840FFF74BBF10B51446D0F8C4021A46F8
:10575C002346FDF7BBFEBDE81040FFF73FBF08B581
:10576C00D0F8C402FDF7E3FEBDE80840FFF736BFF2
:10577C0008B5D0F8C402FDF73BFFBDE80840FFF7C1
:10578C002DBF08B5D0F8C402FDF766FFBDE8084090
:10579C00FFF724BF282211F0800FD0F8C4321BBFB2
:1057AC0001F07F0101FB022102FB01315B1814BFE8
:1057BC00987891F86A01704708B5D0F8C402FDF7E3
:1057CC00BDF9BDE80840FFF709BF08B5D0F8C40221
:1057DC00FDF7F4FEBDE80840FFF700BF08B5D0F8B0
:1057EC00C402FDF7CCFEBDE80840FFF7F7BED0F8C9
:1057FC00C402FDF7DBBE000000487047F82900200A
:10580C0070477047122301480B807047AC01002091
:10581C00042301480B807047C0010020002370B5A1
:10582C001E464D1C040FB0F1204F34BF30343734BA
:10583C0001F8134005F813600133DCB2A2424FEAC1
:10584C000010EFD870BD00001A2310B50B800A4B66
:10585C00D3F8E807D3F8F02780180AD0D3F8EC4730
:10586C0006490822FFF7DAFF042220461031FFF721
:10587C00D5FF034810BD00BF00F0FF1FC60100207C
:10588C00C401002010B5044C0A4604482146FEF71A
:10589C0086FA204610BD00BF182C00200A5E0008B6
:1058AC0010B5044C0A4604482146FEF778FA204607
:1058BC0010BD00BF182C0020175E000810B5044C5A
:1058CC000A4604482146FEF76AFA204610BD00BF7E
:1058DC00182C0020255E000810B5044C0A4604481C
:1058EC002146FEF75CFA204610BD00BF182C0020A4
:1058FC00305E00080C480D490D4A002302E0D458D4
:10590C00C4500433C4188C42F9D30A4A0A4C0023FD
:10591C0001E013600432A242FBD3FCF711FAFAF750
:10592C007DFEFEF733FD704700000020E0010020F3
:10593C00845E0008E0010020182E0020FEE7000025
:10594C00F8B500BFF8BC08BC9E467047F8B500BF60
:08595C00F8BC08BC9E46704730
:105964000000000000000000000000000000000033
:105974000000000000000000000000000000000023
:105984000000000000000000000000000000000013
:105994000000000000000000000000000000000003
:1059A40000000000000000000000000000000000F3
:1059B40000000000000000000000000000000000E3
:1059C40004000020253032580041505020535441E7
:1059D40052540D0A0023204255494C44204441545A
:1059E400453A204A616E20313620323032360D0A73
:1059F400002320524553455420545950453A200021
:105A0400504F5745525F4F4E00555345525F5251C8
:105A14000057445400424F4400554E4B4E4F574E8E
:105A24000025733A200054533133303100312E3382
:105A34002E320046572025732C2048572025732CDE
:105A44002068747470733A2F2F6769746875622EB6
:105A5400636F6D2F74726F706963737175617265B2
:105A64000D0A0025640D0A005553422F5350492056
:105A7400636F6E76657274657220286D61737465E8
:105A840072290D0054726F70696373717561726568
:105A9400205553422F53504920696E7465726661D4
:105AA40063650D005479706520484558206368612A
:105AB4007261637465727320746F206D616B65200D
:105AC400535049207472616E736665722028692E82
